{
  "contractName": "BiddingTimeoutRelease",
  "abi": [
    {
      "inputs": [
        {
          "internalType": "string",
          "name": "_title",
          "type": "string"
        },
        {
          "internalType": "string",
          "name": "_description",
          "type": "string"
        },
        {
          "internalType": "string",
          "name": "_initialMessage",
          "type": "string"
        },
        {
          "internalType": "address",
          "name": "_charityAddress",
          "type": "address"
        },
        {
          "internalType": "uint256",
          "name": "_timeInDays",
          "type": "uint256"
        }
      ],
      "stateMutability": "nonpayable",
      "type": "constructor"
    },
    {
      "inputs": [],
      "name": "campaignCompleted",
      "outputs": [
        {
          "internalType": "bool",
          "name": "",
          "type": "bool"
        }
      ],
      "stateMutability": "view",
      "type": "function"
    },
    {
      "inputs": [],
      "name": "charityAddress",
      "outputs": [
        {
          "internalType": "address payable",
          "name": "",
          "type": "address"
        }
      ],
      "stateMutability": "view",
      "type": "function"
    },
    {
      "inputs": [],
      "name": "description",
      "outputs": [
        {
          "internalType": "string",
          "name": "",
          "type": "string"
        }
      ],
      "stateMutability": "view",
      "type": "function"
    },
    {
      "inputs": [],
      "name": "incrementalTimeout",
      "outputs": [
        {
          "internalType": "uint256",
          "name": "",
          "type": "uint256"
        }
      ],
      "stateMutability": "view",
      "type": "function"
    },
    {
      "inputs": [],
      "name": "lastDonation",
      "outputs": [
        {
          "internalType": "uint256",
          "name": "",
          "type": "uint256"
        }
      ],
      "stateMutability": "view",
      "type": "function"
    },
    {
      "inputs": [],
      "name": "lastDonor",
      "outputs": [
        {
          "internalType": "address",
          "name": "",
          "type": "address"
        }
      ],
      "stateMutability": "view",
      "type": "function"
    },
    {
      "inputs": [],
      "name": "message",
      "outputs": [
        {
          "internalType": "string",
          "name": "",
          "type": "string"
        }
      ],
      "stateMutability": "view",
      "type": "function"
    },
    {
      "inputs": [],
      "name": "timeout",
      "outputs": [
        {
          "internalType": "uint256",
          "name": "",
          "type": "uint256"
        }
      ],
      "stateMutability": "view",
      "type": "function"
    },
    {
      "inputs": [],
      "name": "title",
      "outputs": [
        {
          "internalType": "string",
          "name": "",
          "type": "string"
        }
      ],
      "stateMutability": "view",
      "type": "function"
    },
    {
      "stateMutability": "payable",
      "type": "receive"
    },
    {
      "inputs": [
        {
          "internalType": "string",
          "name": "_newMessage",
          "type": "string"
        }
      ],
      "name": "changeMessage",
      "outputs": [],
      "stateMutability": "payable",
      "type": "function"
    }
  ],
  "bytecode": "0x60c060405260006004556000600560006101000a81548160ff0219169083151502179055503480156200003157600080fd5b50604051620011703803806200117083398181016040528101906200005791906200028e565b84848484848484848483600090805190602001906200007892919062000132565b5082600190805190602001906200009192919062000132565b508160029080519060200190620000aa92919062000132565b508073ffffffffffffffffffffffffffffffffffffffff1660808173ffffffffffffffffffffffffffffffffffffffff1660601b81525050505050506201518081620000f791906200042f565b42620001049190620003d2565b600681905550505050505062015180816200012091906200042f565b60a08181525050505050505062000656565b828054620001409062000504565b90600052602060002090601f016020900481019282620001645760008555620001b0565b82601f106200017f57805160ff1916838001178555620001b0565b82800160010185558215620001b0579182015b82811115620001af57825182559160200191906001019062000192565b5b509050620001bf9190620001c3565b5090565b5b80821115620001de576000816000905550600101620001c4565b5090565b6000620001f9620001f3846200039c565b62000373565b90508281526020810184848401111562000218576200021762000602565b5b62000225848285620004ce565b509392505050565b6000815190506200023e8162000622565b92915050565b600082601f8301126200025c576200025b620005fd565b5b81516200026e848260208601620001e2565b91505092915050565b60008151905062000288816200063c565b92915050565b600080600080600060a08688031215620002ad57620002ac6200060c565b5b600086015167ffffffffffffffff811115620002ce57620002cd62000607565b5b620002dc8882890162000244565b955050602086015167ffffffffffffffff8111156200030057620002ff62000607565b5b6200030e8882890162000244565b945050604086015167ffffffffffffffff81111562000332576200033162000607565b5b620003408882890162000244565b935050606062000353888289016200022d565b9250506080620003668882890162000277565b9150509295509295909350565b60006200037f62000392565b90506200038d82826200053a565b919050565b6000604051905090565b600067ffffffffffffffff821115620003ba57620003b9620005ce565b5b620003c58262000611565b9050602081019050919050565b6000620003df82620004c4565b9150620003ec83620004c4565b9250827fffffffffffffffffffffffffffffffffffffffffffffffffffffffffffffffff0382111562000424576200042362000570565b5b828201905092915050565b60006200043c82620004c4565b91506200044983620004c4565b9250817fffffffffffffffffffffffffffffffffffffffffffffffffffffffffffffffff048311821515161562000485576200048462000570565b5b828202905092915050565b60006200049d82620004a4565b9050919050565b600073ffffffffffffffffffffffffffffffffffffffff82169050919050565b6000819050919050565b60005b83811015620004ee578082015181840152602081019050620004d1565b83811115620004fe576000848401525b50505050565b600060028204905060018216806200051d57607f821691505b602082108114156200053457620005336200059f565b5b50919050565b620005458262000611565b810181811067ffffffffffffffff82111715620005675762000566620005ce565b5b80604052505050565b7f4e487b7100000000000000000000000000000000000000000000000000000000600052601160045260246000fd5b7f4e487b7100000000000000000000000000000000000000000000000000000000600052602260045260246000fd5b7f4e487b7100000000000000000000000000000000000000000000000000000000600052604160045260246000fd5b600080fd5b600080fd5b600080fd5b600080fd5b6000601f19601f8301169050919050565b6200062d8162000490565b81146200063957600080fd5b50565b6200064781620004c4565b81146200065357600080fd5b50565b60805160601c60a051610ae36200068d6000396000818161032101526103c90152600081816104a101526105530152610ae36000f3fe6080604052600436106100955760003560e01c806371ec71571161005957806371ec7157146101695780637284e4161461019457806391b8a49a146101bf578063afcf2fc4146101ea578063e21f37ce146102155761009c565b80630899077e146100a15780634a79d50c146100cc57806360fd1c4f146100f7578063661a56111461011357806370dea79a1461013e5761009c565b3661009c57005b600080fd5b3480156100ad57600080fd5b506100b6610240565b6040516100c391906107dc565b60405180910390f35b3480156100d857600080fd5b506100e1610253565b6040516100ee91906107f7565b60405180910390f35b610111600480360381019061010c91906106e8565b6102e1565b005b34801561011f57600080fd5b506101286103bb565b6040516101359190610819565b60405180910390f35b34801561014a57600080fd5b506101536103c1565b6040516101609190610819565b60405180910390f35b34801561017557600080fd5b5061017e6103c7565b60405161018b9190610819565b60405180910390f35b3480156101a057600080fd5b506101a96103eb565b6040516101b691906107f7565b60405180910390f35b3480156101cb57600080fd5b506101d4610479565b6040516101e191906107a6565b60405180910390f35b3480156101f657600080fd5b506101ff61049f565b60405161020c91906107c1565b60405180910390f35b34801561022157600080fd5b5061022a6104c3565b60405161023791906107f7565b60405180910390f35b600560009054906101000a900460ff1681565b6000805461026090610998565b80601f016020809104026020016040519081016040528092919081815260200182805461028c90610998565b80156102d95780601f106102ae576101008083540402835291602001916102d9565b820191906000526020600020905b8154815290600101906020018083116102bc57829003601f168201915b505050505081565b600560009054906101000a900460ff16156102fb57600080fd5b600454341161030957600080fd5b600654421061031f5761031a610551565b610359565b7f00000000000000000000000000000000000000000000000000000000000000006006600082825461035191906108a6565b925050819055505b33600360006101000a81548173ffffffffffffffffffffffffffffffffffffffff021916908373ffffffffffffffffffffffffffffffffffffffff1602179055503460048190555080600290805190602001906103b79291906105d5565b5050565b60045481565b60065481565b7f000000000000000000000000000000000000000000000000000000000000000081565b600180546103f890610998565b80601f016020809104026020016040519081016040528092919081815260200182805461042490610998565b80156104715780601f1061044657610100808354040283529160200191610471565b820191906000526020600020905b81548152906001019060200180831161045457829003601f168201915b505050505081565b600360009054906101000a900473ffffffffffffffffffffffffffffffffffffffff1681565b7f000000000000000000000000000000000000000000000000000000000000000081565b600280546104d090610998565b80601f01602080910402602001604051908101604052809291908181526020018280546104fc90610998565b80156105495780601f1061051e57610100808354040283529160200191610549565b820191906000526020600020905b81548152906001019060200180831161052c57829003601f168201915b505050505081565b7f000000000000000000000000000000000000000000000000000000000000000073ffffffffffffffffffffffffffffffffffffffff166108fc479081150290604051600060405180830381858888f193505050501580156105b7573d6000803e3d6000fd5b506001600560006101000a81548160ff021916908315150217905550565b8280546105e190610998565b90600052602060002090601f016020900481019282610603576000855561064a565b82601f1061061c57805160ff191683800117855561064a565b8280016001018555821561064a579182015b8281111561064957825182559160200191906001019061062e565b5b509050610657919061065b565b5090565b5b8082111561067457600081600090555060010161065c565b5090565b600061068b61068684610859565b610834565b9050828152602081018484840111156106a7576106a6610a8d565b5b6106b2848285610956565b509392505050565b600082601f8301126106cf576106ce610a88565b5b81356106df848260208601610678565b91505092915050565b6000602082840312156106fe576106fd610a97565b5b600082013567ffffffffffffffff81111561071c5761071b610a92565b5b610728848285016106ba565b91505092915050565b61073a8161090e565b82525050565b610749816108fc565b82525050565b61075881610920565b82525050565b60006107698261088a565b6107738185610895565b9350610783818560208601610965565b61078c81610a9c565b840191505092915050565b6107a08161094c565b82525050565b60006020820190506107bb6000830184610740565b92915050565b60006020820190506107d66000830184610731565b92915050565b60006020820190506107f1600083018461074f565b92915050565b60006020820190508181036000830152610811818461075e565b905092915050565b600060208201905061082e6000830184610797565b92915050565b600061083e61084f565b905061084a82826109ca565b919050565b6000604051905090565b600067ffffffffffffffff82111561087457610873610a59565b5b61087d82610a9c565b9050602081019050919050565b600081519050919050565b600082825260208201905092915050565b60006108b18261094c565b91506108bc8361094c565b9250827fffffffffffffffffffffffffffffffffffffffffffffffffffffffffffffffff038211156108f1576108f06109fb565b5b828201905092915050565b60006109078261092c565b9050919050565b60006109198261092c565b9050919050565b60008115159050919050565b600073ffffffffffffffffffffffffffffffffffffffff82169050919050565b6000819050919050565b82818337600083830152505050565b60005b83811015610983578082015181840152602081019050610968565b83811115610992576000848401525b50505050565b600060028204905060018216806109b057607f821691505b602082108114156109c4576109c3610a2a565b5b50919050565b6109d382610a9c565b810181811067ffffffffffffffff821117156109f2576109f1610a59565b5b80604052505050565b7f4e487b7100000000000000000000000000000000000000000000000000000000600052601160045260246000fd5b7f4e487b7100000000000000000000000000000000000000000000000000000000600052602260045260246000fd5b7f4e487b7100000000000000000000000000000000000000000000000000000000600052604160045260246000fd5b600080fd5b600080fd5b600080fd5b600080fd5b6000601f19601f830116905091905056fea2646970667358221220af4bbd2203ac36b5f11b02ce4d8dd0865bd60d2ee2fca06c418e162bd8976a3b64736f6c63430008050033",
  "immutableReferences": {
    "6": [
      {
        "length": 32,
        "start": 801
      },
      {
        "length": 32,
        "start": 969
      }
    ],
    "86": [
      {
        "length": 32,
        "start": 1185
      },
      {
        "length": 32,
        "start": 1363
      }
    ]
  },
  "source": "// SPDX-License-Identifier: MIT\npragma solidity ^0.8.0;\n\nimport \"./TimeoutRelease.sol\";\n\ncontract BiddingTimeoutRelease is TimeoutRelease {\n    uint immutable public incrementalTimeout;\n\n    constructor(string memory _title, string memory _description, string memory _initialMessage, address _charityAddress, uint _timeInDays)\n        TimeoutRelease( _title, _description, _initialMessage, _charityAddress, _timeInDays)\n    {\n        incrementalTimeout = _timeInDays * 1 days;\n    }\n\n    function changeMessage(string memory _newMessage) override public payable requiresActiveCampaign {\n        require(msg.value > lastDonation);\n        if(block.timestamp >= timeout) {\n            withdrawalBalanceToCharity();\n        } else {\n            timeout += incrementalTimeout;\n        }\n        lastDonor = msg.sender;\n        lastDonation = msg.value;\n        message = _newMessage;\n    }\n}\n",
  "sourcePath": "/Users/ryan/charity-auction/contracts/BiddingTimeoutRelease.sol",
  "compiler": {
    "name": "solc",
    "version": "0.8.5+commit.a4f2e591.Emscripten.clang"
  },
  "schemaVersion": "3.4.1",
  "updatedAt": "2021-06-13T11:33:07.072Z",
  "devdoc": {
    "kind": "dev",
    "methods": {},
    "version": 1
  },
  "userdoc": {
    "kind": "user",
    "methods": {},
    "version": 1
  }
}