{
  "contractName": "CharityAuctionTimeoutBidding",
  "abi": [
    {
      "inputs": [
        {
          "internalType": "string",
          "name": "_initialMessage",
          "type": "string"
        },
        {
          "internalType": "address",
          "name": "_charityAddress",
          "type": "address"
        },
        {
          "internalType": "uint256",
          "name": "_timeInDays",
          "type": "uint256"
        }
      ],
      "stateMutability": "nonpayable",
      "type": "constructor"
    },
    {
      "inputs": [],
      "name": "campaignCompleted",
      "outputs": [
        {
          "internalType": "bool",
          "name": "",
          "type": "bool"
        }
      ],
      "stateMutability": "view",
      "type": "function"
    },
    {
      "inputs": [],
      "name": "charityAddress",
      "outputs": [
        {
          "internalType": "address payable",
          "name": "",
          "type": "address"
        }
      ],
      "stateMutability": "view",
      "type": "function"
    },
    {
      "inputs": [],
      "name": "lastDonation",
      "outputs": [
        {
          "internalType": "uint256",
          "name": "",
          "type": "uint256"
        }
      ],
      "stateMutability": "view",
      "type": "function"
    },
    {
      "inputs": [],
      "name": "lastDonor",
      "outputs": [
        {
          "internalType": "address",
          "name": "",
          "type": "address"
        }
      ],
      "stateMutability": "view",
      "type": "function"
    },
    {
      "inputs": [],
      "name": "message",
      "outputs": [
        {
          "internalType": "string",
          "name": "",
          "type": "string"
        }
      ],
      "stateMutability": "view",
      "type": "function"
    },
    {
      "stateMutability": "payable",
      "type": "receive"
    },
    {
      "inputs": [
        {
          "internalType": "string",
          "name": "_newMessage",
          "type": "string"
        }
      ],
      "name": "changeMessage",
      "outputs": [],
      "stateMutability": "payable",
      "type": "function"
    }
  ],
  "bytecode": "0x608060405260006002556000600360006101000a81548160ff0219169083151502179055503480156200003157600080fd5b5060405162000e6438038062000e6483398181016040528101906200005791906200025b565b8282828282816000908051906020019062000074929190620000ff565b5080600360016101000a81548173ffffffffffffffffffffffffffffffffffffffff021916908373ffffffffffffffffffffffffffffffffffffffff16021790555050506201518081620000c9919062000392565b42620000d6919062000335565b6004819055505050506201518081620000f0919062000392565b600581905550505050620005b9565b8280546200010d9062000467565b90600052602060002090601f0160209004810192826200013157600085556200017d565b82601f106200014c57805160ff19168380011785556200017d565b828001600101855582156200017d579182015b828111156200017c5782518255916020019190600101906200015f565b5b5090506200018c919062000190565b5090565b5b80821115620001ab57600081600090555060010162000191565b5090565b6000620001c6620001c084620002ff565b620002d6565b905082815260208101848484011115620001e557620001e462000565565b5b620001f284828562000431565b509392505050565b6000815190506200020b8162000585565b92915050565b600082601f83011262000229576200022862000560565b5b81516200023b848260208601620001af565b91505092915050565b60008151905062000255816200059f565b92915050565b6000806000606084860312156200027757620002766200056f565b5b600084015167ffffffffffffffff8111156200029857620002976200056a565b5b620002a68682870162000211565b9350506020620002b986828701620001fa565b9250506040620002cc8682870162000244565b9150509250925092565b6000620002e2620002f5565b9050620002f082826200049d565b919050565b6000604051905090565b600067ffffffffffffffff8211156200031d576200031c62000531565b5b620003288262000574565b9050602081019050919050565b6000620003428262000427565b91506200034f8362000427565b9250827fffffffffffffffffffffffffffffffffffffffffffffffffffffffffffffffff03821115620003875762000386620004d3565b5b828201905092915050565b60006200039f8262000427565b9150620003ac8362000427565b9250817fffffffffffffffffffffffffffffffffffffffffffffffffffffffffffffffff0483118215151615620003e857620003e7620004d3565b5b828202905092915050565b6000620004008262000407565b9050919050565b600073ffffffffffffffffffffffffffffffffffffffff82169050919050565b6000819050919050565b60005b838110156200045157808201518184015260208101905062000434565b8381111562000461576000848401525b50505050565b600060028204905060018216806200048057607f821691505b6020821081141562000497576200049662000502565b5b50919050565b620004a88262000574565b810181811067ffffffffffffffff82111715620004ca57620004c962000531565b5b80604052505050565b7f4e487b7100000000000000000000000000000000000000000000000000000000600052601160045260246000fd5b7f4e487b7100000000000000000000000000000000000000000000000000000000600052602260045260246000fd5b7f4e487b7100000000000000000000000000000000000000000000000000000000600052604160045260246000fd5b600080fd5b600080fd5b600080fd5b600080fd5b6000601f19601f8301169050919050565b6200059081620003f3565b81146200059c57600080fd5b50565b620005aa8162000427565b8114620005b657600080fd5b50565b61089b80620005c96000396000f3fe6080604052600436106100595760003560e01c80630899077e1461006557806360fd1c4f14610090578063661a5611146100ac57806391b8a49a146100d7578063afcf2fc414610102578063e21f37ce1461012d57610060565b3661006057005b600080fd5b34801561007157600080fd5b5061007a610158565b6040516100879190610594565b60405180910390f35b6100aa60048036038101906100a591906104a0565b61016b565b005b3480156100b857600080fd5b506100c1610227565b6040516100ce91906105d1565b60405180910390f35b3480156100e357600080fd5b506100ec61022d565b6040516100f9919061055e565b60405180910390f35b34801561010e57600080fd5b50610117610253565b6040516101249190610579565b60405180910390f35b34801561013957600080fd5b50610142610279565b60405161014f91906105af565b60405180910390f35b600360009054906101000a900460ff1681565b600360009054906101000a900460ff161561018557600080fd5b600254341161019357600080fd5b60045442106101a9576101a4610307565b6101c5565b600554600460008282546101bd919061065e565b925050819055505b33600160006101000a81548173ffffffffffffffffffffffffffffffffffffffff021916908373ffffffffffffffffffffffffffffffffffffffff16021790555034600281905550806000908051906020019061022392919061038d565b5050565b60025481565b600160009054906101000a900473ffffffffffffffffffffffffffffffffffffffff1681565b600360019054906101000a900473ffffffffffffffffffffffffffffffffffffffff1681565b6000805461028690610750565b80601f01602080910402602001604051908101604052809291908181526020018280546102b290610750565b80156102ff5780601f106102d4576101008083540402835291602001916102ff565b820191906000526020600020905b8154815290600101906020018083116102e257829003601f168201915b505050505081565b600360019054906101000a900473ffffffffffffffffffffffffffffffffffffffff1673ffffffffffffffffffffffffffffffffffffffff166108fc479081150290604051600060405180830381858888f1935050505015801561036f573d6000803e3d6000fd5b506001600360006101000a81548160ff021916908315150217905550565b82805461039990610750565b90600052602060002090601f0160209004810192826103bb5760008555610402565b82601f106103d457805160ff1916838001178555610402565b82800160010185558215610402579182015b828111156104015782518255916020019190600101906103e6565b5b50905061040f9190610413565b5090565b5b8082111561042c576000816000905550600101610414565b5090565b600061044361043e84610611565b6105ec565b90508281526020810184848401111561045f5761045e610845565b5b61046a84828561070e565b509392505050565b600082601f83011261048757610486610840565b5b8135610497848260208601610430565b91505092915050565b6000602082840312156104b6576104b561084f565b5b600082013567ffffffffffffffff8111156104d4576104d361084a565b5b6104e084828501610472565b91505092915050565b6104f2816106c6565b82525050565b610501816106b4565b82525050565b610510816106d8565b82525050565b600061052182610642565b61052b818561064d565b935061053b81856020860161071d565b61054481610854565b840191505092915050565b61055881610704565b82525050565b600060208201905061057360008301846104f8565b92915050565b600060208201905061058e60008301846104e9565b92915050565b60006020820190506105a96000830184610507565b92915050565b600060208201905081810360008301526105c98184610516565b905092915050565b60006020820190506105e6600083018461054f565b92915050565b60006105f6610607565b90506106028282610782565b919050565b6000604051905090565b600067ffffffffffffffff82111561062c5761062b610811565b5b61063582610854565b9050602081019050919050565b600081519050919050565b600082825260208201905092915050565b600061066982610704565b915061067483610704565b9250827fffffffffffffffffffffffffffffffffffffffffffffffffffffffffffffffff038211156106a9576106a86107b3565b5b828201905092915050565b60006106bf826106e4565b9050919050565b60006106d1826106e4565b9050919050565b60008115159050919050565b600073ffffffffffffffffffffffffffffffffffffffff82169050919050565b6000819050919050565b82818337600083830152505050565b60005b8381101561073b578082015181840152602081019050610720565b8381111561074a576000848401525b50505050565b6000600282049050600182168061076857607f821691505b6020821081141561077c5761077b6107e2565b5b50919050565b61078b82610854565b810181811067ffffffffffffffff821117156107aa576107a9610811565b5b80604052505050565b7f4e487b7100000000000000000000000000000000000000000000000000000000600052601160045260246000fd5b7f4e487b7100000000000000000000000000000000000000000000000000000000600052602260045260246000fd5b7f4e487b7100000000000000000000000000000000000000000000000000000000600052604160045260246000fd5b600080fd5b600080fd5b600080fd5b600080fd5b6000601f19601f830116905091905056fea2646970667358221220c9a6aad82674a76f89cb0d7a1167a0658d320368543c6576fddb098b2020d5e064736f6c63430008050033",
  "immutableReferences": {},
  "source": "// SPDX-License-Identifier: MIT\npragma solidity ^0.8.0;\n\nimport \"./CharityAuctionTimeout.sol\";\n\ncontract CharityAuctionTimeoutBidding is CharityAuctionTimeout {\n    uint incrementalTimeout;\n\n    constructor(string memory _initialMessage, address _charityAddress, uint _timeInDays)\n    CharityAuctionTimeout(_initialMessage, _charityAddress, _timeInDays)\n    {\n        incrementalTimeout = _timeInDays * 1 days;\n    }\n\n    function changeMessage(string memory _newMessage) override public payable requiresActiveCampaign {\n        require(msg.value > lastDonation);\n        if(block.timestamp >= timeout) {\n            withdrawalBalanceToCharity();\n        } else {\n            timeout += incrementalTimeout;\n        }\n        lastDonor = msg.sender;\n        lastDonation = msg.value;\n        message = _newMessage;\n    }\n}\n",
  "sourcePath": "/Users/ryan/charity-auction/contracts/CharityAuctionTimeoutBidding.sol",
  "compiler": {
    "name": "solc",
    "version": "0.8.5+commit.a4f2e591.Emscripten.clang"
  },
  "schemaVersion": "3.4.1",
  "updatedAt": "2021-06-11T08:40:29.888Z",
  "devdoc": {
    "kind": "dev",
    "methods": {},
    "version": 1
  },
  "userdoc": {
    "kind": "user",
    "methods": {},
    "version": 1
  }
}