{
  "contractName": "CharityAuctionTimeout",
  "abi": [
    {
      "inputs": [
        {
          "internalType": "string",
          "name": "_initialMessage",
          "type": "string"
        },
        {
          "internalType": "address",
          "name": "_charityAddress",
          "type": "address"
        },
        {
          "internalType": "uint256",
          "name": "_timeout",
          "type": "uint256"
        }
      ],
      "stateMutability": "nonpayable",
      "type": "constructor"
    },
    {
      "inputs": [],
      "name": "charityAddress",
      "outputs": [
        {
          "internalType": "address payable",
          "name": "",
          "type": "address"
        }
      ],
      "stateMutability": "view",
      "type": "function"
    },
    {
      "inputs": [],
      "name": "lastDonater",
      "outputs": [
        {
          "internalType": "address",
          "name": "",
          "type": "address"
        }
      ],
      "stateMutability": "view",
      "type": "function"
    },
    {
      "inputs": [],
      "name": "lastDonation",
      "outputs": [
        {
          "internalType": "uint256",
          "name": "",
          "type": "uint256"
        }
      ],
      "stateMutability": "view",
      "type": "function"
    },
    {
      "inputs": [],
      "name": "message",
      "outputs": [
        {
          "internalType": "string",
          "name": "",
          "type": "string"
        }
      ],
      "stateMutability": "view",
      "type": "function"
    },
    {
      "stateMutability": "payable",
      "type": "receive"
    },
    {
      "inputs": [
        {
          "internalType": "string",
          "name": "_newMessage",
          "type": "string"
        }
      ],
      "name": "changeMessage",
      "outputs": [],
      "stateMutability": "payable",
      "type": "function"
    }
  ],
  "bytecode": "0x60806040523480156200001157600080fd5b5060405162000c2b38038062000c2b83398181016040528101906200003791906200020a565b8282816000908051906020019062000051929190620000ba565b50600060028190555080600360006101000a81548173ffffffffffffffffffffffffffffffffffffffff021916908373ffffffffffffffffffffffffffffffffffffffff16021790555050508042620000ab9190620002d8565b600481905550505050620004e7565b828054620000c890620003a9565b90600052602060002090601f016020900481019282620000ec576000855562000138565b82601f106200010757805160ff191683800117855562000138565b8280016001018555821562000138579182015b82811115620001375782518255916020019190600101906200011a565b5b5090506200014791906200014b565b5090565b5b80821115620001665760008160009055506001016200014c565b5090565b6000620001816200017b84620002a2565b62000279565b9050828152602081018484840111156200019a57600080fd5b620001a784828562000373565b509392505050565b600081519050620001c081620004b3565b92915050565b600082601f830112620001d857600080fd5b8151620001ea8482602086016200016a565b91505092915050565b6000815190506200020481620004cd565b92915050565b6000806000606084860312156200022057600080fd5b600084015167ffffffffffffffff8111156200023b57600080fd5b6200024986828701620001c6565b93505060206200025c86828701620001af565b92505060406200026f86828701620001f3565b9150509250925092565b60006200028562000298565b9050620002938282620003df565b919050565b6000604051905090565b600067ffffffffffffffff821115620002c057620002bf62000473565b5b620002cb82620004a2565b9050602081019050919050565b6000620002e58262000369565b9150620002f28362000369565b9250827fffffffffffffffffffffffffffffffffffffffffffffffffffffffffffffffff038211156200032a576200032962000415565b5b828201905092915050565b6000620003428262000349565b9050919050565b600073ffffffffffffffffffffffffffffffffffffffff82169050919050565b6000819050919050565b60005b838110156200039357808201518184015260208101905062000376565b83811115620003a3576000848401525b50505050565b60006002820490506001821680620003c257607f821691505b60208210811415620003d957620003d862000444565b5b50919050565b620003ea82620004a2565b810181811067ffffffffffffffff821117156200040c576200040b62000473565b5b80604052505050565b7f4e487b7100000000000000000000000000000000000000000000000000000000600052601160045260246000fd5b7f4e487b7100000000000000000000000000000000000000000000000000000000600052602260045260246000fd5b7f4e487b7100000000000000000000000000000000000000000000000000000000600052604160045260246000fd5b6000601f19601f8301169050919050565b620004be8162000335565b8114620004ca57600080fd5b50565b620004d88162000369565b8114620004e457600080fd5b50565b61073480620004f76000396000f3fe60806040526004361061004e5760003560e01c806328e12b761461007b57806360fd1c4f146100a6578063661a5611146100c2578063afcf2fc4146100ed578063e21f37ce1461011857610076565b36610076576100746040518060600160405280602581526020016106da60259139610143565b005b600080fd5b34801561008757600080fd5b506100906101c5565b60405161009d9190610492565b60405180910390f35b6100c060048036038101906100bb91906103eb565b610143565b005b3480156100ce57600080fd5b506100d76101eb565b6040516100e491906104ea565b60405180910390f35b3480156100f957600080fd5b506101026101f1565b60405161010f91906104ad565b60405180910390f35b34801561012457600080fd5b5061012d610217565b60405161013a91906104c8565b60405180910390f35b600254341161015157600080fd5b6004544210610163576101626102a5565b5b33600160006101000a81548173ffffffffffffffffffffffffffffffffffffffff021916908373ffffffffffffffffffffffffffffffffffffffff1602179055503460028190555080600090805190602001906101c19291906102e0565b5050565b600160009054906101000a900473ffffffffffffffffffffffffffffffffffffffff1681565b60025481565b600360009054906101000a900473ffffffffffffffffffffffffffffffffffffffff1681565b6000805461022490610607565b80601f016020809104026020016040519081016040528092919081815260200182805461025090610607565b801561029d5780601f106102725761010080835404028352916020019161029d565b820191906000526020600020905b81548152906001019060200180831161028057829003601f168201915b505050505081565b600360009054906101000a900473ffffffffffffffffffffffffffffffffffffffff1673ffffffffffffffffffffffffffffffffffffffff16ff5b8280546102ec90610607565b90600052602060002090601f01602090048101928261030e5760008555610355565b82601f1061032757805160ff1916838001178555610355565b82800160010185558215610355579182015b82811115610354578251825591602001919060010190610339565b5b5090506103629190610366565b5090565b5b8082111561037f576000816000905550600101610367565b5090565b60006103966103918461052a565b610505565b9050828152602081018484840111156103ae57600080fd5b6103b98482856105c5565b509392505050565b600082601f8301126103d257600080fd5b81356103e2848260208601610383565b91505092915050565b6000602082840312156103fd57600080fd5b600082013567ffffffffffffffff81111561041757600080fd5b610423848285016103c1565b91505092915050565b61043581610589565b82525050565b61044481610577565b82525050565b60006104558261055b565b61045f8185610566565b935061046f8185602086016105d4565b610478816106c8565b840191505092915050565b61048c816105bb565b82525050565b60006020820190506104a7600083018461043b565b92915050565b60006020820190506104c2600083018461042c565b92915050565b600060208201905081810360008301526104e2818461044a565b905092915050565b60006020820190506104ff6000830184610483565b92915050565b600061050f610520565b905061051b8282610639565b919050565b6000604051905090565b600067ffffffffffffffff82111561054557610544610699565b5b61054e826106c8565b9050602081019050919050565b600081519050919050565b600082825260208201905092915050565b60006105828261059b565b9050919050565b60006105948261059b565b9050919050565b600073ffffffffffffffffffffffffffffffffffffffff82169050919050565b6000819050919050565b82818337600083830152505050565b60005b838110156105f25780820151818401526020810190506105d7565b83811115610601576000848401525b50505050565b6000600282049050600182168061061f57607f821691505b602082108114156106335761063261066a565b5b50919050565b610642826106c8565b810181811067ffffffffffffffff8211171561066157610660610699565b5b80604052505050565b7f4e487b7100000000000000000000000000000000000000000000000000000000600052602260045260246000fd5b7f4e487b7100000000000000000000000000000000000000000000000000000000600052604160045260246000fd5b6000601f19601f830116905091905056fe4c61737420646f6e6174657220646964206e6f74206c656176652061206d6573736167652ea26469706673582212201bb3d3a6052121ac375fb3b2dcf1b05ad0bb473c65ed2afb8a610d041b0a0d5664736f6c63430008040033",
  "immutableReferences": {},
  "source": "// SPDX-License-Identifier: MIT\npragma solidity ^0.8.0;\n\nabstract contract CharityAuction {\n    string public message;\n    address public lastDonater;\n    uint public lastDonation;\n\n    address payable public charityAddress;\n\n    constructor(string memory _initialMessage, address _charityAddress) {\n        message = _initialMessage;\n        lastDonation = 0;\n        charityAddress = payable(_charityAddress);\n    }\n\n    function changeMessage(string memory _newMessage) virtual public payable {\n        require(msg.value > lastDonation);\n        message = _newMessage;\n    }\n\n    // How will this get called from oracle? \n    function donateToCharity() internal virtual;\n\n    receive() external payable {\n        changeMessage(\"Last donater did not leave a message.\");\n    }\n}\n\ncontract CharityAuctionThreshold is CharityAuction {\n    uint public threshold;\n\n    // Uhh what is standard practice for where to set line breaks?\n    constructor(string memory _initialMessage, address _charityAddress, uint _threshold) CharityAuction(_initialMessage, _charityAddress) {\n        threshold = _threshold;\n    }\n\n    function remainingWei() public view returns (uint) {\n        return address(this).balance - threshold;\n    }\n\n    function changeMessage(string memory _newMessage) override public payable {\n        require(msg.value > lastDonation);\n        message = _newMessage;\n        lastDonater = msg.sender;\n        lastDonation = msg.value;\n        if(address(this).balance + msg.value >= threshold) {\n            donateToCharity();\n        }\n    }\n\n    function donateToCharity() internal override {\n        selfdestruct(charityAddress);\n    }\n}\n\ncontract CharityAuctionTimeout is CharityAuction {\n    uint timeout;\n\n    constructor(string memory _initialMessage, address _charityAddress, uint _timeout) CharityAuction(_initialMessage, _charityAddress) {\n        timeout = block.timestamp + _timeout;\n    }\n\n    function changeMessage(string memory _newMessage) override virtual public payable {\n        require(msg.value > lastDonation);\n        if(block.timestamp >= timeout) {\n            donateToCharity();\n        }\n        lastDonater = msg.sender;\n        lastDonation = msg.value;\n        message = _newMessage;\n    }\n\n    // Is self destructing really the right choice here?\n    function donateToCharity() internal override {\n        selfdestruct(charityAddress);\n    }\n}\n\n// Fun variation, or maybe its just the beer talking \ncontract CharityAuctionTimeoutBidding is CharityAuctionTimeout {\n    uint incrementalTimeout;\n\n    constructor(string memory _initialMessage, address _charityAddress, uint _timeout) CharityAuctionTimeout(_initialMessage, _charityAddress, _timeout) {\n        incrementalTimeout = _timeout;\n    }\n\n    function changeMessage(string memory _newMessage) override public payable {\n        require(msg.value > lastDonation);\n        if(block.timestamp >= timeout) {\n            donateToCharity();\n        } else {\n            timeout += incrementalTimeout;\n        }\n        lastDonater = msg.sender;\n        lastDonation = msg.value;\n        message = _newMessage;\n    }\n}",
  "sourcePath": "/Users/ryan/charity-auction/contracts/CharityAuction.sol",
  "compiler": {
    "name": "solc",
    "version": "0.8.4+commit.c7e474f2.Emscripten.clang"
  },
  "schemaVersion": "3.4.1",
  "updatedAt": "2021-06-07T16:35:54.634Z",
  "devdoc": {
    "kind": "dev",
    "methods": {},
    "version": 1
  },
  "userdoc": {
    "kind": "user",
    "methods": {},
    "version": 1
  }
}