{
  "contractName": "CharityAuctionThreshold",
  "abi": [
    {
      "inputs": [
        {
          "internalType": "string",
          "name": "_initialMessage",
          "type": "string"
        },
        {
          "internalType": "address",
          "name": "_charityAddress",
          "type": "address"
        },
        {
          "internalType": "uint256",
          "name": "_threshold",
          "type": "uint256"
        }
      ],
      "stateMutability": "nonpayable",
      "type": "constructor"
    },
    {
      "inputs": [],
      "name": "charityAddress",
      "outputs": [
        {
          "internalType": "address payable",
          "name": "",
          "type": "address"
        }
      ],
      "stateMutability": "view",
      "type": "function",
      "constant": true
    },
    {
      "inputs": [],
      "name": "lastDonation",
      "outputs": [
        {
          "internalType": "uint256",
          "name": "",
          "type": "uint256"
        }
      ],
      "stateMutability": "view",
      "type": "function",
      "constant": true
    },
    {
      "inputs": [],
      "name": "lastDonor",
      "outputs": [
        {
          "internalType": "address",
          "name": "",
          "type": "address"
        }
      ],
      "stateMutability": "view",
      "type": "function",
      "constant": true
    },
    {
      "inputs": [],
      "name": "message",
      "outputs": [
        {
          "internalType": "string",
          "name": "",
          "type": "string"
        }
      ],
      "stateMutability": "view",
      "type": "function",
      "constant": true
    },
    {
      "inputs": [],
      "name": "threshold",
      "outputs": [
        {
          "internalType": "uint256",
          "name": "",
          "type": "uint256"
        }
      ],
      "stateMutability": "view",
      "type": "function",
      "constant": true
    },
    {
      "stateMutability": "payable",
      "type": "receive",
      "payable": true
    },
    {
      "inputs": [],
      "name": "remainingWei",
      "outputs": [
        {
          "internalType": "uint256",
          "name": "",
          "type": "uint256"
        }
      ],
      "stateMutability": "view",
      "type": "function",
      "constant": true
    },
    {
      "inputs": [
        {
          "internalType": "string",
          "name": "_newMessage",
          "type": "string"
        }
      ],
      "name": "changeMessage",
      "outputs": [],
      "stateMutability": "payable",
      "type": "function",
      "payable": true
    }
  ],
  "bytecode": "0x60806040523480156200001157600080fd5b5060405162000cd738038062000cd78339818101604052810190620000379190620001fd565b8282816000908051906020019062000051929190620000ad565b50600060028190555080600360006101000a81548173ffffffffffffffffffffffffffffffffffffffff021916908373ffffffffffffffffffffffffffffffffffffffff1602179055505050806004819055505050506200044e565b828054620000bb906200033f565b90600052602060002090601f016020900481019282620000df57600085556200012b565b82601f10620000fa57805160ff19168380011785556200012b565b828001600101855582156200012b579182015b828111156200012a5782518255916020019190600101906200010d565b5b5090506200013a91906200013e565b5090565b5b80821115620001595760008160009055506001016200013f565b5090565b6000620001746200016e8462000295565b6200026c565b9050828152602081018484840111156200018d57600080fd5b6200019a84828562000309565b509392505050565b600081519050620001b3816200041a565b92915050565b600082601f830112620001cb57600080fd5b8151620001dd8482602086016200015d565b91505092915050565b600081519050620001f78162000434565b92915050565b6000806000606084860312156200021357600080fd5b600084015167ffffffffffffffff8111156200022e57600080fd5b6200023c86828701620001b9565b93505060206200024f86828701620001a2565b92505060406200026286828701620001e6565b9150509250925092565b6000620002786200028b565b905062000286828262000375565b919050565b6000604051905090565b600067ffffffffffffffff821115620002b357620002b2620003da565b5b620002be8262000409565b9050602081019050919050565b6000620002d882620002df565b9050919050565b600073ffffffffffffffffffffffffffffffffffffffff82169050919050565b6000819050919050565b60005b83811015620003295780820151818401526020810190506200030c565b8381111562000339576000848401525b50505050565b600060028204905060018216806200035857607f821691505b602082108114156200036f576200036e620003ab565b5b50919050565b620003808262000409565b810181811067ffffffffffffffff82111715620003a257620003a1620003da565b5b80604052505050565b7f4e487b7100000000000000000000000000000000000000000000000000000000600052602260045260246000fd5b7f4e487b7100000000000000000000000000000000000000000000000000000000600052604160045260246000fd5b6000601f19601f8301169050919050565b6200042581620002cb565b81146200043157600080fd5b50565b6200043f81620002ff565b81146200044b57600080fd5b50565b610879806200045e6000396000f3fe6080604052600436106100745760003560e01c806391a113031161004e57806391a11303146100f257806391b8a49a1461011d578063afcf2fc414610148578063e21f37ce146101735761007b565b806342cde4e81461008057806360fd1c4f146100ab578063661a5611146100c75761007b565b3661007b57005b600080fd5b34801561008c57600080fd5b5061009561019e565b6040516100a2919061059b565b60405180910390f35b6100c560048036038101906100c0919061049c565b6101a4565b005b3480156100d357600080fd5b506100dc610231565b6040516100e9919061059b565b60405180910390f35b3480156100fe57600080fd5b50610107610237565b604051610114919061059b565b60405180910390f35b34801561012957600080fd5b5061013261024c565b60405161013f9190610543565b60405180910390f35b34801561015457600080fd5b5061015d610272565b60405161016a919061055e565b60405180910390f35b34801561017f57600080fd5b50610188610298565b6040516101959190610579565b60405180910390f35b60045481565b60025434116101b257600080fd5b80600090805190602001906101c8929190610391565b5033600160006101000a81548173ffffffffffffffffffffffffffffffffffffffff021916908373ffffffffffffffffffffffffffffffffffffffff1602179055503460028190555060045434476102209190610628565b1061022e5761022d610326565b5b50565b60025481565b600060045447610247919061067e565b905090565b600160009054906101000a900473ffffffffffffffffffffffffffffffffffffffff1681565b600360009054906101000a900473ffffffffffffffffffffffffffffffffffffffff1681565b600080546102a590610742565b80601f01602080910402602001604051908101604052809291908181526020018280546102d190610742565b801561031e5780601f106102f35761010080835404028352916020019161031e565b820191906000526020600020905b81548152906001019060200180831161030157829003601f168201915b505050505081565b600360009054906101000a900473ffffffffffffffffffffffffffffffffffffffff1673ffffffffffffffffffffffffffffffffffffffff166108fc479081150290604051600060405180830381858888f1935050505015801561038e573d6000803e3d6000fd5b50565b82805461039d90610742565b90600052602060002090601f0160209004810192826103bf5760008555610406565b82601f106103d857805160ff1916838001178555610406565b82800160010185558215610406579182015b828111156104055782518255916020019190600101906103ea565b5b5090506104139190610417565b5090565b5b80821115610430576000816000905550600101610418565b5090565b6000610447610442846105db565b6105b6565b90508281526020810184848401111561045f57600080fd5b61046a848285610700565b509392505050565b600082601f83011261048357600080fd5b8135610493848260208601610434565b91505092915050565b6000602082840312156104ae57600080fd5b600082013567ffffffffffffffff8111156104c857600080fd5b6104d484828501610472565b91505092915050565b6104e6816106c4565b82525050565b6104f5816106b2565b82525050565b60006105068261060c565b6105108185610617565b935061052081856020860161070f565b61052981610832565b840191505092915050565b61053d816106f6565b82525050565b600060208201905061055860008301846104ec565b92915050565b600060208201905061057360008301846104dd565b92915050565b6000602082019050818103600083015261059381846104fb565b905092915050565b60006020820190506105b06000830184610534565b92915050565b60006105c06105d1565b90506105cc8282610774565b919050565b6000604051905090565b600067ffffffffffffffff8211156105f6576105f5610803565b5b6105ff82610832565b9050602081019050919050565b600081519050919050565b600082825260208201905092915050565b6000610633826106f6565b915061063e836106f6565b9250827fffffffffffffffffffffffffffffffffffffffffffffffffffffffffffffffff03821115610673576106726107a5565b5b828201905092915050565b6000610689826106f6565b9150610694836106f6565b9250828210156106a7576106a66107a5565b5b828203905092915050565b60006106bd826106d6565b9050919050565b60006106cf826106d6565b9050919050565b600073ffffffffffffffffffffffffffffffffffffffff82169050919050565b6000819050919050565b82818337600083830152505050565b60005b8381101561072d578082015181840152602081019050610712565b8381111561073c576000848401525b50505050565b6000600282049050600182168061075a57607f821691505b6020821081141561076e5761076d6107d4565b5b50919050565b61077d82610832565b810181811067ffffffffffffffff8211171561079c5761079b610803565b5b80604052505050565b7f4e487b7100000000000000000000000000000000000000000000000000000000600052601160045260246000fd5b7f4e487b7100000000000000000000000000000000000000000000000000000000600052602260045260246000fd5b7f4e487b7100000000000000000000000000000000000000000000000000000000600052604160045260246000fd5b6000601f19601f830116905091905056fea26469706673582212206ded910f31eaf7b74bf41fe138c35c957f946f8a1adccf47b033da75ff2d3b4164736f6c63430008040033",
  "immutableReferences": {},
  "source": "// SPDX-License-Identifier: MIT\npragma solidity ^0.8.0;\n\nimport \"./CharityAuction.sol\";\n\ncontract CharityAuctionThreshold is CharityAuction {\n    uint public threshold;\n\n    // Uhh what is standard practice for where to set line breaks?\n    constructor(string memory _initialMessage, address _charityAddress, uint _threshold) CharityAuction(_initialMessage, _charityAddress) {\n        threshold = _threshold;\n    }\n\n    function remainingWei() public view returns (uint) {\n        return address(this).balance - threshold;\n    }\n\n    function changeMessage(string memory _newMessage) override public payable {\n        require(msg.value > lastDonation);\n        message = _newMessage;\n        lastDonor = msg.sender;\n        lastDonation = msg.value;\n        if(address(this).balance + msg.value >= threshold) {\n            withdrawalBalanceToCharity();\n        }\n    }\n\n    function withdrawalBalanceToCharity() internal override {\n        charityAddress.transfer(address(this).balance);\n    }\n}\n",
  "sourcePath": "/Users/ryan/charity-auction/contracts/CharityAuctionThreshold.sol",
  "compiler": {
    "name": "solc",
    "version": "0.8.4+commit.c7e474f2.Emscripten.clang"
  },
  "schemaVersion": "3.4.1",
  "updatedAt": "2021-06-08T18:16:44.749Z",
  "networkType": "ethereum",
  "devdoc": {
    "kind": "dev",
    "methods": {},
    "version": 1
  },
  "userdoc": {
    "kind": "user",
    "methods": {},
    "version": 1
  }
}