{
  "contractName": "CharityAuctionThreshold",
  "abi": [
    {
      "inputs": [
        {
          "internalType": "string",
          "name": "_initialMessage",
          "type": "string"
        },
        {
          "internalType": "address",
          "name": "_charityAddress",
          "type": "address"
        },
        {
          "internalType": "uint256",
          "name": "_threshold",
          "type": "uint256"
        }
      ],
      "stateMutability": "nonpayable",
      "type": "constructor"
    },
    {
      "inputs": [],
      "name": "campaignCompleted",
      "outputs": [
        {
          "internalType": "bool",
          "name": "",
          "type": "bool"
        }
      ],
      "stateMutability": "view",
      "type": "function",
      "constant": true
    },
    {
      "inputs": [],
      "name": "charityAddress",
      "outputs": [
        {
          "internalType": "address payable",
          "name": "",
          "type": "address"
        }
      ],
      "stateMutability": "view",
      "type": "function",
      "constant": true
    },
    {
      "inputs": [],
      "name": "lastDonation",
      "outputs": [
        {
          "internalType": "uint256",
          "name": "",
          "type": "uint256"
        }
      ],
      "stateMutability": "view",
      "type": "function",
      "constant": true
    },
    {
      "inputs": [],
      "name": "lastDonor",
      "outputs": [
        {
          "internalType": "address",
          "name": "",
          "type": "address"
        }
      ],
      "stateMutability": "view",
      "type": "function",
      "constant": true
    },
    {
      "inputs": [],
      "name": "message",
      "outputs": [
        {
          "internalType": "string",
          "name": "",
          "type": "string"
        }
      ],
      "stateMutability": "view",
      "type": "function",
      "constant": true
    },
    {
      "inputs": [],
      "name": "threshold",
      "outputs": [
        {
          "internalType": "uint256",
          "name": "",
          "type": "uint256"
        }
      ],
      "stateMutability": "view",
      "type": "function",
      "constant": true
    },
    {
      "stateMutability": "payable",
      "type": "receive",
      "payable": true
    },
    {
      "inputs": [],
      "name": "remainingWei",
      "outputs": [
        {
          "internalType": "uint256",
          "name": "",
          "type": "uint256"
        }
      ],
      "stateMutability": "view",
      "type": "function",
      "constant": true
    },
    {
      "inputs": [
        {
          "internalType": "string",
          "name": "_newMessage",
          "type": "string"
        }
      ],
      "name": "changeMessage",
      "outputs": [],
      "stateMutability": "payable",
      "type": "function",
      "payable": true
    }
  ],
  "bytecode": "0x608060405260006002556000600360006101000a81548160ff0219169083151502179055503480156200003157600080fd5b5060405162000e1238038062000e12833981810160405281019062000057919062000221565b8282816000908051906020019062000071929190620000c5565b5080600360016101000a81548173ffffffffffffffffffffffffffffffffffffffff021916908373ffffffffffffffffffffffffffffffffffffffff16021790555050508060048190555050505062000492565b828054620000d3906200036f565b90600052602060002090601f016020900481019282620000f7576000855562000143565b82601f106200011257805160ff191683800117855562000143565b8280016001018555821562000143579182015b828111156200014257825182559160200191906001019062000125565b5b50905062000152919062000156565b5090565b5b808211156200017157600081600090555060010162000157565b5090565b60006200018c6200018684620002c5565b6200029c565b905082815260208101848484011115620001ab57620001aa6200043e565b5b620001b884828562000339565b509392505050565b600081519050620001d1816200045e565b92915050565b600082601f830112620001ef57620001ee62000439565b5b81516200020184826020860162000175565b91505092915050565b6000815190506200021b8162000478565b92915050565b6000806000606084860312156200023d576200023c62000448565b5b600084015167ffffffffffffffff8111156200025e576200025d62000443565b5b6200026c86828701620001d7565b93505060206200027f86828701620001c0565b925050604062000292868287016200020a565b9150509250925092565b6000620002a8620002bb565b9050620002b68282620003a5565b919050565b6000604051905090565b600067ffffffffffffffff821115620002e357620002e26200040a565b5b620002ee826200044d565b9050602081019050919050565b600062000308826200030f565b9050919050565b600073ffffffffffffffffffffffffffffffffffffffff82169050919050565b6000819050919050565b60005b83811015620003595780820151818401526020810190506200033c565b8381111562000369576000848401525b50505050565b600060028204905060018216806200038857607f821691505b602082108114156200039f576200039e620003db565b5b50919050565b620003b0826200044d565b810181811067ffffffffffffffff82111715620003d257620003d16200040a565b5b80604052505050565b7f4e487b7100000000000000000000000000000000000000000000000000000000600052602260045260246000fd5b7f4e487b7100000000000000000000000000000000000000000000000000000000600052604160045260246000fd5b600080fd5b600080fd5b600080fd5b600080fd5b6000601f19601f8301169050919050565b6200046981620002fb565b81146200047557600080fd5b50565b62000483816200032f565b81146200048f57600080fd5b50565b61097080620004a26000396000f3fe60806040526004361061007f5760003560e01c806391a113031161004e57806391a113031461012857806391b8a49a14610153578063afcf2fc41461017e578063e21f37ce146101a957610086565b80630899077e1461008b57806342cde4e8146100b657806360fd1c4f146100e1578063661a5611146100fd57610086565b3661008657005b600080fd5b34801561009757600080fd5b506100a06101d4565b6040516100ad9190610635565b60405180910390f35b3480156100c257600080fd5b506100cb6101e7565b6040516100d89190610672565b60405180910390f35b6100fb60048036038101906100f69190610541565b6101ed565b005b34801561010957600080fd5b50610112610294565b60405161011f9190610672565b60405180910390f35b34801561013457600080fd5b5061013d61029a565b60405161014a9190610672565b60405180910390f35b34801561015f57600080fd5b506101686102ce565b60405161017591906105ff565b60405180910390f35b34801561018a57600080fd5b506101936102f4565b6040516101a0919061061a565b60405180910390f35b3480156101b557600080fd5b506101be61031a565b6040516101cb9190610650565b60405180910390f35b600360009054906101000a900460ff1681565b60045481565b600360009054906101000a900460ff161561020757600080fd5b600254341161021557600080fd5b806000908051906020019061022b92919061042e565b5033600160006101000a81548173ffffffffffffffffffffffffffffffffffffffff021916908373ffffffffffffffffffffffffffffffffffffffff16021790555034600281905550600454344761028391906106ff565b10610291576102906103a8565b5b50565b60025481565b6000600360009054906101000a900460ff16156102ba57600090506102cb565b476004546102c89190610755565b90505b90565b600160009054906101000a900473ffffffffffffffffffffffffffffffffffffffff1681565b600360019054906101000a900473ffffffffffffffffffffffffffffffffffffffff1681565b6000805461032790610825565b80601f016020809104026020016040519081016040528092919081815260200182805461035390610825565b80156103a05780601f10610375576101008083540402835291602001916103a0565b820191906000526020600020905b81548152906001019060200180831161038357829003601f168201915b505050505081565b600360019054906101000a900473ffffffffffffffffffffffffffffffffffffffff1673ffffffffffffffffffffffffffffffffffffffff166108fc479081150290604051600060405180830381858888f19350505050158015610410573d6000803e3d6000fd5b506001600360006101000a81548160ff021916908315150217905550565b82805461043a90610825565b90600052602060002090601f01602090048101928261045c57600085556104a3565b82601f1061047557805160ff19168380011785556104a3565b828001600101855582156104a3579182015b828111156104a2578251825591602001919060010190610487565b5b5090506104b091906104b4565b5090565b5b808211156104cd5760008160009055506001016104b5565b5090565b60006104e46104df846106b2565b61068d565b905082815260208101848484011115610500576104ff61091a565b5b61050b8482856107e3565b509392505050565b600082601f83011261052857610527610915565b5b81356105388482602086016104d1565b91505092915050565b60006020828403121561055757610556610924565b5b600082013567ffffffffffffffff8111156105755761057461091f565b5b61058184828501610513565b91505092915050565b6105938161079b565b82525050565b6105a281610789565b82525050565b6105b1816107ad565b82525050565b60006105c2826106e3565b6105cc81856106ee565b93506105dc8185602086016107f2565b6105e581610929565b840191505092915050565b6105f9816107d9565b82525050565b60006020820190506106146000830184610599565b92915050565b600060208201905061062f600083018461058a565b92915050565b600060208201905061064a60008301846105a8565b92915050565b6000602082019050818103600083015261066a81846105b7565b905092915050565b600060208201905061068760008301846105f0565b92915050565b60006106976106a8565b90506106a38282610857565b919050565b6000604051905090565b600067ffffffffffffffff8211156106cd576106cc6108e6565b5b6106d682610929565b9050602081019050919050565b600081519050919050565b600082825260208201905092915050565b600061070a826107d9565b9150610715836107d9565b9250827fffffffffffffffffffffffffffffffffffffffffffffffffffffffffffffffff0382111561074a57610749610888565b5b828201905092915050565b6000610760826107d9565b915061076b836107d9565b92508282101561077e5761077d610888565b5b828203905092915050565b6000610794826107b9565b9050919050565b60006107a6826107b9565b9050919050565b60008115159050919050565b600073ffffffffffffffffffffffffffffffffffffffff82169050919050565b6000819050919050565b82818337600083830152505050565b60005b838110156108105780820151818401526020810190506107f5565b8381111561081f576000848401525b50505050565b6000600282049050600182168061083d57607f821691505b60208210811415610851576108506108b7565b5b50919050565b61086082610929565b810181811067ffffffffffffffff8211171561087f5761087e6108e6565b5b80604052505050565b7f4e487b7100000000000000000000000000000000000000000000000000000000600052601160045260246000fd5b7f4e487b7100000000000000000000000000000000000000000000000000000000600052602260045260246000fd5b7f4e487b7100000000000000000000000000000000000000000000000000000000600052604160045260246000fd5b600080fd5b600080fd5b600080fd5b600080fd5b6000601f19601f830116905091905056fea2646970667358221220af313de72b09d8ac5711877f4866feb5c93e703afe6f7da55a079fd0090c916664736f6c63430008050033",
  "immutableReferences": {},
  "source": "// SPDX-License-Identifier: MIT\npragma solidity ^0.8.0;\n\nimport \"./CharityAuction.sol\";\n\ncontract CharityAuctionThreshold is CharityAuction {\n    uint public threshold;\n\n    constructor( string memory _initialMessage, address _charityAddress, uint _threshold)\n        CharityAuction( _initialMessage, _charityAddress )\n    {\n        threshold = _threshold;\n    }\n\n    function remainingWei() public view returns (uint) {\n        if(campaignCompleted) {\n            return 0;\n        } else {\n            return threshold - address(this).balance;\n        }\n    }\n\n    function changeMessage(string memory _newMessage) override public payable requiresActiveCampaign {\n        require(msg.value > lastDonation);\n        message = _newMessage;\n        lastDonor = msg.sender;\n        lastDonation = msg.value;\n        if(address(this).balance + msg.value >= threshold) {\n            withdrawalBalanceToCharity();\n        }\n    }\n\n    function withdrawalBalanceToCharity() internal override {\n        charityAddress.transfer(address(this).balance);\n        campaignCompleted = true;\n    }\n}\n",
  "sourcePath": "/Users/ryan/charity-auction/contracts/CharityAuctionThreshold.sol",
  "compiler": {
    "name": "solc",
    "version": "0.8.5+commit.a4f2e591.Emscripten.clang"
  },
  "schemaVersion": "3.4.1",
  "updatedAt": "2021-06-11T08:53:43.996Z",
  "networkType": "ethereum",
  "devdoc": {
    "kind": "dev",
    "methods": {},
    "version": 1
  },
  "userdoc": {
    "kind": "user",
    "methods": {},
    "version": 1
  }
}