{
  "contractName": "CharityAuctionThreshold",
  "abi": [
    {
      "inputs": [
        {
          "internalType": "string",
          "name": "_initialMessage",
          "type": "string"
        },
        {
          "internalType": "address",
          "name": "_charityAddress",
          "type": "address"
        },
        {
          "internalType": "uint256",
          "name": "_threshold",
          "type": "uint256"
        }
      ],
      "stateMutability": "nonpayable",
      "type": "constructor"
    },
    {
      "inputs": [],
      "name": "charityAddress",
      "outputs": [
        {
          "internalType": "address payable",
          "name": "",
          "type": "address"
        }
      ],
      "stateMutability": "view",
      "type": "function",
      "constant": true
    },
    {
      "inputs": [],
      "name": "lastDonater",
      "outputs": [
        {
          "internalType": "address",
          "name": "",
          "type": "address"
        }
      ],
      "stateMutability": "view",
      "type": "function",
      "constant": true
    },
    {
      "inputs": [],
      "name": "lastDonation",
      "outputs": [
        {
          "internalType": "uint256",
          "name": "",
          "type": "uint256"
        }
      ],
      "stateMutability": "view",
      "type": "function",
      "constant": true
    },
    {
      "inputs": [],
      "name": "message",
      "outputs": [
        {
          "internalType": "string",
          "name": "",
          "type": "string"
        }
      ],
      "stateMutability": "view",
      "type": "function",
      "constant": true
    },
    {
      "inputs": [],
      "name": "threshold",
      "outputs": [
        {
          "internalType": "uint256",
          "name": "",
          "type": "uint256"
        }
      ],
      "stateMutability": "view",
      "type": "function",
      "constant": true
    },
    {
      "stateMutability": "payable",
      "type": "receive",
      "payable": true
    },
    {
      "inputs": [],
      "name": "remainingWei",
      "outputs": [
        {
          "internalType": "uint256",
          "name": "",
          "type": "uint256"
        }
      ],
      "stateMutability": "view",
      "type": "function",
      "constant": true
    },
    {
      "inputs": [
        {
          "internalType": "string",
          "name": "_newMessage",
          "type": "string"
        }
      ],
      "name": "changeMessage",
      "outputs": [],
      "stateMutability": "payable",
      "type": "function",
      "payable": true
    }
  ],
  "bytecode": "0x60806040523480156200001157600080fd5b5060405162000ced38038062000ced8339818101604052810190620000379190620001fd565b8282816000908051906020019062000051929190620000ad565b50600060028190555080600360006101000a81548173ffffffffffffffffffffffffffffffffffffffff021916908373ffffffffffffffffffffffffffffffffffffffff1602179055505050806004819055505050506200044e565b828054620000bb906200033f565b90600052602060002090601f016020900481019282620000df57600085556200012b565b82601f10620000fa57805160ff19168380011785556200012b565b828001600101855582156200012b579182015b828111156200012a5782518255916020019190600101906200010d565b5b5090506200013a91906200013e565b5090565b5b80821115620001595760008160009055506001016200013f565b5090565b6000620001746200016e8462000295565b6200026c565b9050828152602081018484840111156200018d57600080fd5b6200019a84828562000309565b509392505050565b600081519050620001b3816200041a565b92915050565b600082601f830112620001cb57600080fd5b8151620001dd8482602086016200015d565b91505092915050565b600081519050620001f78162000434565b92915050565b6000806000606084860312156200021357600080fd5b600084015167ffffffffffffffff8111156200022e57600080fd5b6200023c86828701620001b9565b93505060206200024f86828701620001a2565b92505060406200026286828701620001e6565b9150509250925092565b6000620002786200028b565b905062000286828262000375565b919050565b6000604051905090565b600067ffffffffffffffff821115620002b357620002b2620003da565b5b620002be8262000409565b9050602081019050919050565b6000620002d882620002df565b9050919050565b600073ffffffffffffffffffffffffffffffffffffffff82169050919050565b6000819050919050565b60005b83811015620003295780820151818401526020810190506200030c565b8381111562000339576000848401525b50505050565b600060028204905060018216806200035857607f821691505b602082108114156200036f576200036e620003ab565b5b50919050565b620003808262000409565b810181811067ffffffffffffffff82111715620003a257620003a1620003da565b5b80604052505050565b7f4e487b7100000000000000000000000000000000000000000000000000000000600052602260045260246000fd5b7f4e487b7100000000000000000000000000000000000000000000000000000000600052604160045260246000fd5b6000601f19601f8301169050919050565b6200042581620002cb565b81146200043157600080fd5b50565b6200043f81620002ff565b81146200044b57600080fd5b50565b61088f806200045e6000396000f3fe6080604052600436106100745760003560e01c8063661a56111161004e578063661a56111461011357806391a113031461013e578063afcf2fc414610169578063e21f37ce146101945761009c565b806328e12b76146100a157806342cde4e8146100cc57806360fd1c4f146100f75761009c565b3661009c5761009a604051806060016040528060258152602001610835602591396101bf565b005b600080fd5b3480156100ad57600080fd5b506100b661024c565b6040516100c39190610534565b60405180910390f35b3480156100d857600080fd5b506100e1610272565b6040516100ee919061058c565b60405180910390f35b610111600480360381019061010c919061048d565b6101bf565b005b34801561011f57600080fd5b50610128610278565b604051610135919061058c565b60405180910390f35b34801561014a57600080fd5b5061015361027e565b604051610160919061058c565b60405180910390f35b34801561017557600080fd5b5061017e610293565b60405161018b919061054f565b60405180910390f35b3480156101a057600080fd5b506101a96102b9565b6040516101b6919061056a565b60405180910390f35b60025434116101cd57600080fd5b80600090805190602001906101e3929190610382565b5033600160006101000a81548173ffffffffffffffffffffffffffffffffffffffff021916908373ffffffffffffffffffffffffffffffffffffffff16021790555034600281905550600454344761023b9190610619565b1061024957610248610347565b5b50565b600160009054906101000a900473ffffffffffffffffffffffffffffffffffffffff1681565b60045481565b60025481565b60006004544761028e919061066f565b905090565b600360009054906101000a900473ffffffffffffffffffffffffffffffffffffffff1681565b600080546102c690610733565b80601f01602080910402602001604051908101604052809291908181526020018280546102f290610733565b801561033f5780601f106103145761010080835404028352916020019161033f565b820191906000526020600020905b81548152906001019060200180831161032257829003601f168201915b505050505081565b600360009054906101000a900473ffffffffffffffffffffffffffffffffffffffff1673ffffffffffffffffffffffffffffffffffffffff16ff5b82805461038e90610733565b90600052602060002090601f0160209004810192826103b057600085556103f7565b82601f106103c957805160ff19168380011785556103f7565b828001600101855582156103f7579182015b828111156103f65782518255916020019190600101906103db565b5b5090506104049190610408565b5090565b5b80821115610421576000816000905550600101610409565b5090565b6000610438610433846105cc565b6105a7565b90508281526020810184848401111561045057600080fd5b61045b8482856106f1565b509392505050565b600082601f83011261047457600080fd5b8135610484848260208601610425565b91505092915050565b60006020828403121561049f57600080fd5b600082013567ffffffffffffffff8111156104b957600080fd5b6104c584828501610463565b91505092915050565b6104d7816106b5565b82525050565b6104e6816106a3565b82525050565b60006104f7826105fd565b6105018185610608565b9350610511818560208601610700565b61051a81610823565b840191505092915050565b61052e816106e7565b82525050565b600060208201905061054960008301846104dd565b92915050565b600060208201905061056460008301846104ce565b92915050565b6000602082019050818103600083015261058481846104ec565b905092915050565b60006020820190506105a16000830184610525565b92915050565b60006105b16105c2565b90506105bd8282610765565b919050565b6000604051905090565b600067ffffffffffffffff8211156105e7576105e66107f4565b5b6105f082610823565b9050602081019050919050565b600081519050919050565b600082825260208201905092915050565b6000610624826106e7565b915061062f836106e7565b9250827fffffffffffffffffffffffffffffffffffffffffffffffffffffffffffffffff0382111561066457610663610796565b5b828201905092915050565b600061067a826106e7565b9150610685836106e7565b92508282101561069857610697610796565b5b828203905092915050565b60006106ae826106c7565b9050919050565b60006106c0826106c7565b9050919050565b600073ffffffffffffffffffffffffffffffffffffffff82169050919050565b6000819050919050565b82818337600083830152505050565b60005b8381101561071e578082015181840152602081019050610703565b8381111561072d576000848401525b50505050565b6000600282049050600182168061074b57607f821691505b6020821081141561075f5761075e6107c5565b5b50919050565b61076e82610823565b810181811067ffffffffffffffff8211171561078d5761078c6107f4565b5b80604052505050565b7f4e487b7100000000000000000000000000000000000000000000000000000000600052601160045260246000fd5b7f4e487b7100000000000000000000000000000000000000000000000000000000600052602260045260246000fd5b7f4e487b7100000000000000000000000000000000000000000000000000000000600052604160045260246000fd5b6000601f19601f830116905091905056fe4c61737420646f6e6174657220646964206e6f74206c656176652061206d6573736167652ea26469706673582212201d2eeb435a9c93ab6dd8dbe8484810947f34f52ba8c89b0018a4a8011a4790f664736f6c63430008040033",
  "immutableReferences": {},
  "source": "// SPDX-License-Identifier: MIT\npragma solidity ^0.8.0;\n\nabstract contract CharityAuction {\n    string public message;\n    address public lastDonater;\n    uint public lastDonation;\n\n    address payable public charityAddress;\n\n    constructor(string memory _initialMessage, address _charityAddress) {\n        message = _initialMessage;\n        lastDonation = 0;\n        charityAddress = payable(_charityAddress);\n    }\n\n    function changeMessage(string memory _newMessage) virtual public payable {\n        require(msg.value > lastDonation);\n        message = _newMessage;\n    }\n\n    // How will this get called from oracle? \n    function donateToCharity() internal virtual;\n\n    receive() external payable {\n        changeMessage(\"Last donater did not leave a message.\");\n    }\n}\n\ncontract CharityAuctionThreshold is CharityAuction {\n    uint public threshold;\n\n    // Uhh what is standard practice for where to set line breaks?\n    constructor(string memory _initialMessage, address _charityAddress, uint _threshold) CharityAuction(_initialMessage, _charityAddress) {\n        threshold = _threshold;\n    }\n\n    function remainingWei() public view returns (uint) {\n        return address(this).balance - threshold;\n    }\n\n    function changeMessage(string memory _newMessage) override public payable {\n        require(msg.value > lastDonation);\n        message = _newMessage;\n        lastDonater = msg.sender;\n        lastDonation = msg.value;\n        if(address(this).balance + msg.value >= threshold) {\n            donateToCharity();\n        }\n    }\n\n    function donateToCharity() internal override {\n        selfdestruct(charityAddress);\n    }\n}\n\ncontract CharityAuctionTimeout is CharityAuction {\n    uint timeout;\n\n    constructor(string memory _initialMessage, address _charityAddress, uint _timeout) CharityAuction(_initialMessage, _charityAddress) {\n        timeout = block.timestamp + _timeout;\n    }\n\n    function changeMessage(string memory _newMessage) override virtual public payable {\n        require(msg.value > lastDonation);\n        if(block.timestamp >= timeout) {\n            donateToCharity();\n        }\n        lastDonater = msg.sender;\n        lastDonation = msg.value;\n        message = _newMessage;\n    }\n\n    // Is self destructing really the right choice here?\n    function donateToCharity() internal override {\n        selfdestruct(charityAddress);\n    }\n}\n\n// Fun variation, or maybe its just the beer talking \ncontract CharityAuctionTimeoutBidding is CharityAuctionTimeout {\n    uint incrementalTimeout;\n\n    constructor(string memory _initialMessage, address _charityAddress, uint _timeout) CharityAuctionTimeout(_initialMessage, _charityAddress, _timeout) {\n        incrementalTimeout = _timeout;\n    }\n\n    function changeMessage(string memory _newMessage) override public payable {\n        require(msg.value > lastDonation);\n        if(block.timestamp >= timeout) {\n            donateToCharity();\n        } else {\n            timeout += incrementalTimeout;\n        }\n        lastDonater = msg.sender;\n        lastDonation = msg.value;\n        message = _newMessage;\n    }\n}",
  "sourcePath": "/Users/ryan/charity-auction/contracts/CharityAuction.sol",
  "compiler": {
    "name": "solc",
    "version": "0.8.4+commit.c7e474f2.Emscripten.clang"
  },
  "schemaVersion": "3.4.1",
  "updatedAt": "2021-06-07T16:36:13.379Z",
  "networkType": "ethereum",
  "devdoc": {
    "kind": "dev",
    "methods": {},
    "version": 1
  },
  "userdoc": {
    "kind": "user",
    "methods": {},
    "version": 1
  }
}