{
  "contractName": "CharityAuctionThreshold",
  "abi": [
    {
      "inputs": [
        {
          "internalType": "string",
          "name": "_initialMessage",
          "type": "string"
        },
        {
          "internalType": "address",
          "name": "_charityAddress",
          "type": "address"
        },
        {
          "internalType": "uint256",
          "name": "_threshold",
          "type": "uint256"
        }
      ],
      "stateMutability": "nonpayable",
      "type": "constructor"
    },
    {
      "inputs": [],
      "name": "charityAddress",
      "outputs": [
        {
          "internalType": "address payable",
          "name": "",
          "type": "address"
        }
      ],
      "stateMutability": "view",
      "type": "function",
      "constant": true
    },
    {
      "inputs": [],
      "name": "lastDonater",
      "outputs": [
        {
          "internalType": "address",
          "name": "",
          "type": "address"
        }
      ],
      "stateMutability": "view",
      "type": "function",
      "constant": true
    },
    {
      "inputs": [],
      "name": "lastDonation",
      "outputs": [
        {
          "internalType": "uint256",
          "name": "",
          "type": "uint256"
        }
      ],
      "stateMutability": "view",
      "type": "function",
      "constant": true
    },
    {
      "inputs": [],
      "name": "message",
      "outputs": [
        {
          "internalType": "string",
          "name": "",
          "type": "string"
        }
      ],
      "stateMutability": "view",
      "type": "function",
      "constant": true
    },
    {
      "stateMutability": "payable",
      "type": "receive",
      "payable": true
    },
    {
      "inputs": [
        {
          "internalType": "string",
          "name": "_newMessage",
          "type": "string"
        }
      ],
      "name": "changeMessage",
      "outputs": [],
      "stateMutability": "payable",
      "type": "function",
      "payable": true
    }
  ],
  "bytecode": "0x60806040523480156200001157600080fd5b5060405162000c2238038062000c228339818101604052810190620000379190620001fd565b8282816000908051906020019062000051929190620000ad565b50600060028190555080600360006101000a81548173ffffffffffffffffffffffffffffffffffffffff021916908373ffffffffffffffffffffffffffffffffffffffff1602179055505050806004819055505050506200044e565b828054620000bb906200033f565b90600052602060002090601f016020900481019282620000df57600085556200012b565b82601f10620000fa57805160ff19168380011785556200012b565b828001600101855582156200012b579182015b828111156200012a5782518255916020019190600101906200010d565b5b5090506200013a91906200013e565b5090565b5b80821115620001595760008160009055506001016200013f565b5090565b6000620001746200016e8462000295565b6200026c565b9050828152602081018484840111156200018d57600080fd5b6200019a84828562000309565b509392505050565b600081519050620001b3816200041a565b92915050565b600082601f830112620001cb57600080fd5b8151620001dd8482602086016200015d565b91505092915050565b600081519050620001f78162000434565b92915050565b6000806000606084860312156200021357600080fd5b600084015167ffffffffffffffff8111156200022e57600080fd5b6200023c86828701620001b9565b93505060206200024f86828701620001a2565b92505060406200026286828701620001e6565b9150509250925092565b6000620002786200028b565b905062000286828262000375565b919050565b6000604051905090565b600067ffffffffffffffff821115620002b357620002b2620003da565b5b620002be8262000409565b9050602081019050919050565b6000620002d882620002df565b9050919050565b600073ffffffffffffffffffffffffffffffffffffffff82169050919050565b6000819050919050565b60005b83811015620003295780820151818401526020810190506200030c565b8381111562000339576000848401525b50505050565b600060028204905060018216806200035857607f821691505b602082108114156200036f576200036e620003ab565b5b50919050565b620003808262000409565b810181811067ffffffffffffffff82111715620003a257620003a1620003da565b5b80604052505050565b7f4e487b7100000000000000000000000000000000000000000000000000000000600052602260045260246000fd5b7f4e487b7100000000000000000000000000000000000000000000000000000000600052604160045260246000fd5b6000601f19601f8301169050919050565b6200042581620002cb565b81146200043157600080fd5b50565b6200043f81620002ff565b81146200044b57600080fd5b50565b6107c4806200045e6000396000f3fe60806040526004361061004e5760003560e01c806328e12b761461007b57806360fd1c4f146100a6578063661a5611146100c2578063afcf2fc4146100ed578063e21f37ce1461011857610076565b366100765761007460405180606001604052806025815260200161076a60259139610143565b005b600080fd5b34801561008757600080fd5b506100906101d0565b60405161009d919061049d565b60405180910390f35b6100c060048036038101906100bb91906103f6565b610143565b005b3480156100ce57600080fd5b506100d76101f6565b6040516100e491906104f5565b60405180910390f35b3480156100f957600080fd5b506101026101fc565b60405161010f91906104b8565b60405180910390f35b34801561012457600080fd5b5061012d610222565b60405161013a91906104d3565b60405180910390f35b600254341161015157600080fd5b80600090805190602001906101679291906102eb565b5033600160006101000a81548173ffffffffffffffffffffffffffffffffffffffff021916908373ffffffffffffffffffffffffffffffffffffffff1602179055503460028190555060045434476101bf9190610582565b106101cd576101cc6102b0565b5b50565b600160009054906101000a900473ffffffffffffffffffffffffffffffffffffffff1681565b60025481565b600360009054906101000a900473ffffffffffffffffffffffffffffffffffffffff1681565b6000805461022f90610668565b80601f016020809104026020016040519081016040528092919081815260200182805461025b90610668565b80156102a85780601f1061027d576101008083540402835291602001916102a8565b820191906000526020600020905b81548152906001019060200180831161028b57829003601f168201915b505050505081565b600360009054906101000a900473ffffffffffffffffffffffffffffffffffffffff1673ffffffffffffffffffffffffffffffffffffffff16ff5b8280546102f790610668565b90600052602060002090601f0160209004810192826103195760008555610360565b82601f1061033257805160ff1916838001178555610360565b82800160010185558215610360579182015b8281111561035f578251825591602001919060010190610344565b5b50905061036d9190610371565b5090565b5b8082111561038a576000816000905550600101610372565b5090565b60006103a161039c84610535565b610510565b9050828152602081018484840111156103b957600080fd5b6103c4848285610626565b509392505050565b600082601f8301126103dd57600080fd5b81356103ed84826020860161038e565b91505092915050565b60006020828403121561040857600080fd5b600082013567ffffffffffffffff81111561042257600080fd5b61042e848285016103cc565b91505092915050565b610440816105ea565b82525050565b61044f816105d8565b82525050565b600061046082610566565b61046a8185610571565b935061047a818560208601610635565b61048381610758565b840191505092915050565b6104978161061c565b82525050565b60006020820190506104b26000830184610446565b92915050565b60006020820190506104cd6000830184610437565b92915050565b600060208201905081810360008301526104ed8184610455565b905092915050565b600060208201905061050a600083018461048e565b92915050565b600061051a61052b565b9050610526828261069a565b919050565b6000604051905090565b600067ffffffffffffffff8211156105505761054f610729565b5b61055982610758565b9050602081019050919050565b600081519050919050565b600082825260208201905092915050565b600061058d8261061c565b91506105988361061c565b9250827fffffffffffffffffffffffffffffffffffffffffffffffffffffffffffffffff038211156105cd576105cc6106cb565b5b828201905092915050565b60006105e3826105fc565b9050919050565b60006105f5826105fc565b9050919050565b600073ffffffffffffffffffffffffffffffffffffffff82169050919050565b6000819050919050565b82818337600083830152505050565b60005b83811015610653578082015181840152602081019050610638565b83811115610662576000848401525b50505050565b6000600282049050600182168061068057607f821691505b60208210811415610694576106936106fa565b5b50919050565b6106a382610758565b810181811067ffffffffffffffff821117156106c2576106c1610729565b5b80604052505050565b7f4e487b7100000000000000000000000000000000000000000000000000000000600052601160045260246000fd5b7f4e487b7100000000000000000000000000000000000000000000000000000000600052602260045260246000fd5b7f4e487b7100000000000000000000000000000000000000000000000000000000600052604160045260246000fd5b6000601f19601f830116905091905056fe4c61737420646f6e6174657220646964206e6f74206c656176652061206d6573736167652ea264697066735822122081ebf01ea956c94c82989392fbd2c2847c7b6d73f7b1573365de340ff6618ba464736f6c63430008040033",
  "immutableReferences": {},
  "source": "// SPDX-License-Identifier: MIT\npragma solidity ^0.8.0;\n\nabstract contract CharityAuction {\n    string public message;\n    address public lastDonater;\n    uint public lastDonation;\n\n    address payable public charityAddress;\n\n    constructor(string memory _initialMessage, address _charityAddress) {\n        message = _initialMessage;\n        lastDonation = 0;\n        charityAddress = payable(_charityAddress);\n    }\n\n    function changeMessage(string memory _newMessage) virtual public payable {\n        require(msg.value > lastDonation);\n        message = _newMessage;\n    }\n\n    // How will this get called from oracle? \n    function donateToCharity() internal virtual;\n\n    receive() external payable {\n        changeMessage(\"Last donater did not leave a message.\");\n    }\n}\n\ncontract CharityAuctionThreshold is CharityAuction {\n    uint threshold;\n\n    // Uhh what is standard practice for where to set line breaks?\n    constructor(string memory _initialMessage, address _charityAddress, uint _threshold) CharityAuction(_initialMessage, _charityAddress) {\n        threshold = _threshold;\n    }\n\n    function changeMessage(string memory _newMessage) override public payable {\n        require(msg.value > lastDonation);\n        message = _newMessage;\n        lastDonater = msg.sender;\n        lastDonation = msg.value;\n        if(address(this).balance + msg.value >= threshold) {\n            donateToCharity();\n        }\n    }\n\n    function donateToCharity() internal override {\n        selfdestruct(charityAddress);\n    }\n}\n\ncontract CharityAuctionTimeout is CharityAuction {\n    uint timeout;\n\n    constructor(string memory _initialMessage, address _charityAddress, uint _timeout) CharityAuction(_initialMessage, _charityAddress) {\n        timeout = block.timestamp + _timeout;\n    }\n\n    function changeMessage(string memory _newMessage) override virtual public payable {\n        require(msg.value > lastDonation);\n        if(block.timestamp >= timeout) {\n            donateToCharity();\n        }\n        lastDonater = msg.sender;\n        lastDonation = msg.value;\n        message = _newMessage;\n    }\n\n    // Is self destructing really the right choice here?\n    function donateToCharity() internal override {\n        selfdestruct(charityAddress);\n    }\n}\n\n// Fun variation, or maybe its just the beer talking \ncontract CharityAuctionTimeoutBidding is CharityAuctionTimeout {\n    uint incrementalTimeout;\n\n    constructor(string memory _initialMessage, address _charityAddress, uint _timeout) CharityAuctionTimeout(_initialMessage, _charityAddress, _timeout) {\n        incrementalTimeout = _timeout;\n    }\n\n    function changeMessage(string memory _newMessage) override public payable {\n        require(msg.value > lastDonation);\n        if(block.timestamp >= timeout) {\n            donateToCharity();\n        } else {\n            timeout += incrementalTimeout;\n        }\n        lastDonater = msg.sender;\n        lastDonation = msg.value;\n        message = _newMessage;\n    }\n}",
  "sourcePath": "/home/distractedm1nd/Programming/charity-auction/contracts/CharityAuction.sol",
  "compiler": {
    "name": "solc",
    "version": "0.8.4+commit.c7e474f2.Emscripten.clang"
  },
  "schemaVersion": "3.4.1",
  "updatedAt": "2021-06-06T12:35:36.551Z",
  "networkType": "ethereum",
  "devdoc": {
    "kind": "dev",
    "methods": {},
    "version": 1
  },
  "userdoc": {
    "kind": "user",
    "methods": {},
    "version": 1
  }
}