{
  "contractName": "CharityAuctionTimeout",
  "abi": [
    {
      "inputs": [
        {
          "internalType": "string",
          "name": "_initialMessage",
          "type": "string"
        },
        {
          "internalType": "address",
          "name": "_charityAddress",
          "type": "address"
        },
        {
          "internalType": "uint256",
          "name": "_timeInDays",
          "type": "uint256"
        }
      ],
      "stateMutability": "nonpayable",
      "type": "constructor"
    },
    {
      "inputs": [],
      "name": "campaignCompleted",
      "outputs": [
        {
          "internalType": "bool",
          "name": "",
          "type": "bool"
        }
      ],
      "stateMutability": "view",
      "type": "function"
    },
    {
      "inputs": [],
      "name": "charityAddress",
      "outputs": [
        {
          "internalType": "address payable",
          "name": "",
          "type": "address"
        }
      ],
      "stateMutability": "view",
      "type": "function"
    },
    {
      "inputs": [],
      "name": "lastDonation",
      "outputs": [
        {
          "internalType": "uint256",
          "name": "",
          "type": "uint256"
        }
      ],
      "stateMutability": "view",
      "type": "function"
    },
    {
      "inputs": [],
      "name": "lastDonor",
      "outputs": [
        {
          "internalType": "address",
          "name": "",
          "type": "address"
        }
      ],
      "stateMutability": "view",
      "type": "function"
    },
    {
      "inputs": [],
      "name": "message",
      "outputs": [
        {
          "internalType": "string",
          "name": "",
          "type": "string"
        }
      ],
      "stateMutability": "view",
      "type": "function"
    },
    {
      "stateMutability": "payable",
      "type": "receive"
    },
    {
      "inputs": [
        {
          "internalType": "string",
          "name": "_newMessage",
          "type": "string"
        }
      ],
      "name": "changeMessage",
      "outputs": [],
      "stateMutability": "payable",
      "type": "function"
    }
  ],
  "bytecode": "0x608060405260006002556000600360006101000a81548160ff0219169083151502179055503480156200003157600080fd5b5060405162000da238038062000da283398181016040528101906200005791906200023e565b8282816000908051906020019062000071929190620000e2565b5080600360016101000a81548173ffffffffffffffffffffffffffffffffffffffff021916908373ffffffffffffffffffffffffffffffffffffffff16021790555050506201518081620000c6919062000375565b42620000d3919062000318565b6004819055505050506200059c565b828054620000f0906200044a565b90600052602060002090601f01602090048101928262000114576000855562000160565b82601f106200012f57805160ff191683800117855562000160565b8280016001018555821562000160579182015b828111156200015f57825182559160200191906001019062000142565b5b5090506200016f919062000173565b5090565b5b808211156200018e57600081600090555060010162000174565b5090565b6000620001a9620001a384620002e2565b620002b9565b905082815260208101848484011115620001c857620001c762000548565b5b620001d584828562000414565b509392505050565b600081519050620001ee8162000568565b92915050565b600082601f8301126200020c576200020b62000543565b5b81516200021e84826020860162000192565b91505092915050565b600081519050620002388162000582565b92915050565b6000806000606084860312156200025a576200025962000552565b5b600084015167ffffffffffffffff8111156200027b576200027a6200054d565b5b6200028986828701620001f4565b93505060206200029c86828701620001dd565b9250506040620002af8682870162000227565b9150509250925092565b6000620002c5620002d8565b9050620002d3828262000480565b919050565b6000604051905090565b600067ffffffffffffffff8211156200030057620002ff62000514565b5b6200030b8262000557565b9050602081019050919050565b600062000325826200040a565b915062000332836200040a565b9250827fffffffffffffffffffffffffffffffffffffffffffffffffffffffffffffffff038211156200036a5762000369620004b6565b5b828201905092915050565b600062000382826200040a565b91506200038f836200040a565b9250817fffffffffffffffffffffffffffffffffffffffffffffffffffffffffffffffff0483118215151615620003cb57620003ca620004b6565b5b828202905092915050565b6000620003e382620003ea565b9050919050565b600073ffffffffffffffffffffffffffffffffffffffff82169050919050565b6000819050919050565b60005b838110156200043457808201518184015260208101905062000417565b8381111562000444576000848401525b50505050565b600060028204905060018216806200046357607f821691505b602082108114156200047a5762000479620004e5565b5b50919050565b6200048b8262000557565b810181811067ffffffffffffffff82111715620004ad57620004ac62000514565b5b80604052505050565b7f4e487b7100000000000000000000000000000000000000000000000000000000600052601160045260246000fd5b7f4e487b7100000000000000000000000000000000000000000000000000000000600052602260045260246000fd5b7f4e487b7100000000000000000000000000000000000000000000000000000000600052604160045260246000fd5b600080fd5b600080fd5b600080fd5b600080fd5b6000601f19601f8301169050919050565b6200057381620003d6565b81146200057f57600080fd5b50565b6200058d816200040a565b81146200059957600080fd5b50565b6107f680620005ac6000396000f3fe6080604052600436106100595760003560e01c80630899077e1461006557806360fd1c4f14610090578063661a5611146100ac57806391b8a49a146100d7578063afcf2fc414610102578063e21f37ce1461012d57610060565b3661006057005b600080fd5b34801561007157600080fd5b5061007a610158565b6040516100879190610574565b60405180910390f35b6100aa60048036038101906100a59190610480565b61016b565b005b3480156100b857600080fd5b506100c1610207565b6040516100ce91906105b1565b60405180910390f35b3480156100e357600080fd5b506100ec61020d565b6040516100f9919061053e565b60405180910390f35b34801561010e57600080fd5b50610117610233565b6040516101249190610559565b60405180910390f35b34801561013957600080fd5b50610142610259565b60405161014f919061058f565b60405180910390f35b600360009054906101000a900460ff1681565b600360009054906101000a900460ff161561018557600080fd5b600254341161019357600080fd5b60045442106101a5576101a46102e7565b5b33600160006101000a81548173ffffffffffffffffffffffffffffffffffffffff021916908373ffffffffffffffffffffffffffffffffffffffff16021790555034600281905550806000908051906020019061020392919061036d565b5050565b60025481565b600160009054906101000a900473ffffffffffffffffffffffffffffffffffffffff1681565b600360019054906101000a900473ffffffffffffffffffffffffffffffffffffffff1681565b60008054610266906106da565b80601f0160208091040260200160405190810160405280929190818152602001828054610292906106da565b80156102df5780601f106102b4576101008083540402835291602001916102df565b820191906000526020600020905b8154815290600101906020018083116102c257829003601f168201915b505050505081565b600360019054906101000a900473ffffffffffffffffffffffffffffffffffffffff1673ffffffffffffffffffffffffffffffffffffffff166108fc479081150290604051600060405180830381858888f1935050505015801561034f573d6000803e3d6000fd5b506001600360006101000a81548160ff021916908315150217905550565b828054610379906106da565b90600052602060002090601f01602090048101928261039b57600085556103e2565b82601f106103b457805160ff19168380011785556103e2565b828001600101855582156103e2579182015b828111156103e15782518255916020019190600101906103c6565b5b5090506103ef91906103f3565b5090565b5b8082111561040c5760008160009055506001016103f4565b5090565b600061042361041e846105f1565b6105cc565b90508281526020810184848401111561043f5761043e6107a0565b5b61044a848285610698565b509392505050565b600082601f8301126104675761046661079b565b5b8135610477848260208601610410565b91505092915050565b600060208284031215610496576104956107aa565b5b600082013567ffffffffffffffff8111156104b4576104b36107a5565b5b6104c084828501610452565b91505092915050565b6104d281610650565b82525050565b6104e18161063e565b82525050565b6104f081610662565b82525050565b600061050182610622565b61050b818561062d565b935061051b8185602086016106a7565b610524816107af565b840191505092915050565b6105388161068e565b82525050565b600060208201905061055360008301846104d8565b92915050565b600060208201905061056e60008301846104c9565b92915050565b600060208201905061058960008301846104e7565b92915050565b600060208201905081810360008301526105a981846104f6565b905092915050565b60006020820190506105c6600083018461052f565b92915050565b60006105d66105e7565b90506105e2828261070c565b919050565b6000604051905090565b600067ffffffffffffffff82111561060c5761060b61076c565b5b610615826107af565b9050602081019050919050565b600081519050919050565b600082825260208201905092915050565b60006106498261066e565b9050919050565b600061065b8261066e565b9050919050565b60008115159050919050565b600073ffffffffffffffffffffffffffffffffffffffff82169050919050565b6000819050919050565b82818337600083830152505050565b60005b838110156106c55780820151818401526020810190506106aa565b838111156106d4576000848401525b50505050565b600060028204905060018216806106f257607f821691505b602082108114156107065761070561073d565b5b50919050565b610715826107af565b810181811067ffffffffffffffff821117156107345761073361076c565b5b80604052505050565b7f4e487b7100000000000000000000000000000000000000000000000000000000600052602260045260246000fd5b7f4e487b7100000000000000000000000000000000000000000000000000000000600052604160045260246000fd5b600080fd5b600080fd5b600080fd5b600080fd5b6000601f19601f830116905091905056fea2646970667358221220085407eee63a25efdc2cebb9bb90e94c0726c1cfb5b0d5916793bb751677339f64736f6c63430008050033",
  "immutableReferences": {},
  "source": "// SPDX-License-Identifier: MIT\npragma solidity ^0.8.0;\n\nimport \"./CharityAuctionTimeout.sol\";\nimport \"./CharityAuction.sol\";\n\ncontract CharityAuctionTimeout is CharityAuction {\n    uint timeout;\n\n    constructor(string memory _initialMessage, address _charityAddress, uint _timeInDays) CharityAuction(_initialMessage, _charityAddress) {\n        timeout = block.timestamp + (_timeInDays * 1 days);\n    }\n\n    function changeMessage(string memory _newMessage) override virtual public payable requiresActiveCampaign {\n        require(msg.value > lastDonation);\n        if(block.timestamp >= timeout) {\n            withdrawalBalanceToCharity();\n        }\n        lastDonor = msg.sender;\n        lastDonation = msg.value;\n        message = _newMessage;\n    }\n\n    function withdrawalBalanceToCharity() internal override {\n        charityAddress.transfer(address(this).balance);\n        campaignCompleted = true;\n    }\n}\n\n",
  "sourcePath": "/Users/ryan/charity-auction/contracts/CharityAuctionTimeout.sol",
  "compiler": {
    "name": "solc",
    "version": "0.8.5+commit.a4f2e591.Emscripten.clang"
  },
  "schemaVersion": "3.4.1",
  "updatedAt": "2021-06-11T08:40:29.883Z",
  "devdoc": {
    "kind": "dev",
    "methods": {},
    "version": 1
  },
  "userdoc": {
    "kind": "user",
    "methods": {},
    "version": 1
  }
}