{
  "contractName": "CharityAuctionTimeoutBidding",
  "abi": [
    {
      "inputs": [
        {
          "internalType": "string",
          "name": "_initialMessage",
          "type": "string"
        },
        {
          "internalType": "address",
          "name": "_charityAddress",
          "type": "address"
        },
        {
          "internalType": "uint256",
          "name": "_timeout",
          "type": "uint256"
        }
      ],
      "stateMutability": "nonpayable",
      "type": "constructor"
    },
    {
      "inputs": [],
      "name": "charityAddress",
      "outputs": [
        {
          "internalType": "address payable",
          "name": "",
          "type": "address"
        }
      ],
      "stateMutability": "view",
      "type": "function"
    },
    {
      "inputs": [],
      "name": "lastDonation",
      "outputs": [
        {
          "internalType": "uint256",
          "name": "",
          "type": "uint256"
        }
      ],
      "stateMutability": "view",
      "type": "function"
    },
    {
      "inputs": [],
      "name": "lastDonor",
      "outputs": [
        {
          "internalType": "address",
          "name": "",
          "type": "address"
        }
      ],
      "stateMutability": "view",
      "type": "function"
    },
    {
      "inputs": [],
      "name": "message",
      "outputs": [
        {
          "internalType": "string",
          "name": "",
          "type": "string"
        }
      ],
      "stateMutability": "view",
      "type": "function"
    },
    {
      "stateMutability": "payable",
      "type": "receive"
    },
    {
      "inputs": [
        {
          "internalType": "string",
          "name": "_newMessage",
          "type": "string"
        }
      ],
      "name": "changeMessage",
      "outputs": [],
      "stateMutability": "payable",
      "type": "function"
    }
  ],
  "bytecode": "0x60806040523480156200001157600080fd5b5060405162000cc738038062000cc7833981810160405281019062000037919062000217565b8282828282816000908051906020019062000054929190620000c7565b50600060028190555080600360006101000a81548173ffffffffffffffffffffffffffffffffffffffff021916908373ffffffffffffffffffffffffffffffffffffffff16021790555050508042620000ae9190620002e5565b60048190555050505080600581905550505050620004f4565b828054620000d590620003b6565b90600052602060002090601f016020900481019282620000f9576000855562000145565b82601f106200011457805160ff191683800117855562000145565b8280016001018555821562000145579182015b828111156200014457825182559160200191906001019062000127565b5b50905062000154919062000158565b5090565b5b808211156200017357600081600090555060010162000159565b5090565b60006200018e6200018884620002af565b62000286565b905082815260208101848484011115620001a757600080fd5b620001b484828562000380565b509392505050565b600081519050620001cd81620004c0565b92915050565b600082601f830112620001e557600080fd5b8151620001f784826020860162000177565b91505092915050565b6000815190506200021181620004da565b92915050565b6000806000606084860312156200022d57600080fd5b600084015167ffffffffffffffff8111156200024857600080fd5b6200025686828701620001d3565b93505060206200026986828701620001bc565b92505060406200027c8682870162000200565b9150509250925092565b600062000292620002a5565b9050620002a08282620003ec565b919050565b6000604051905090565b600067ffffffffffffffff821115620002cd57620002cc62000480565b5b620002d882620004af565b9050602081019050919050565b6000620002f28262000376565b9150620002ff8362000376565b9250827fffffffffffffffffffffffffffffffffffffffffffffffffffffffffffffffff0382111562000337576200033662000422565b5b828201905092915050565b60006200034f8262000356565b9050919050565b600073ffffffffffffffffffffffffffffffffffffffff82169050919050565b6000819050919050565b60005b83811015620003a057808201518184015260208101905062000383565b83811115620003b0576000848401525b50505050565b60006002820490506001821680620003cf57607f821691505b60208210811415620003e657620003e562000451565b5b50919050565b620003f782620004af565b810181811067ffffffffffffffff8211171562000419576200041862000480565b5b80604052505050565b7f4e487b7100000000000000000000000000000000000000000000000000000000600052601160045260246000fd5b7f4e487b7100000000000000000000000000000000000000000000000000000000600052602260045260246000fd5b7f4e487b7100000000000000000000000000000000000000000000000000000000600052604160045260246000fd5b6000601f19601f8301169050919050565b620004cb8162000342565b8114620004d757600080fd5b50565b620004e58162000376565b8114620004f157600080fd5b50565b6107c380620005046000396000f3fe60806040526004361061004e5760003560e01c806360fd1c4f1461005a578063661a56111461007657806391b8a49a146100a1578063afcf2fc4146100cc578063e21f37ce146100f757610055565b3661005557005b600080fd5b610074600480360381019061006f919061041a565b610122565b005b34801561008257600080fd5b5061008b6101c4565b6040516100989190610519565b60405180910390f35b3480156100ad57600080fd5b506100b66101ca565b6040516100c391906104c1565b60405180910390f35b3480156100d857600080fd5b506100e16101f0565b6040516100ee91906104dc565b60405180910390f35b34801561010357600080fd5b5061010c610216565b60405161011991906104f7565b60405180910390f35b600254341161013057600080fd5b6004544210610146576101416102a4565b610162565b6005546004600082825461015a91906105a6565b925050819055505b33600160006101000a81548173ffffffffffffffffffffffffffffffffffffffff021916908373ffffffffffffffffffffffffffffffffffffffff1602179055503460028190555080600090805190602001906101c092919061030f565b5050565b60025481565b600160009054906101000a900473ffffffffffffffffffffffffffffffffffffffff1681565b600360009054906101000a900473ffffffffffffffffffffffffffffffffffffffff1681565b600080546102239061068c565b80601f016020809104026020016040519081016040528092919081815260200182805461024f9061068c565b801561029c5780601f106102715761010080835404028352916020019161029c565b820191906000526020600020905b81548152906001019060200180831161027f57829003601f168201915b505050505081565b600360009054906101000a900473ffffffffffffffffffffffffffffffffffffffff1673ffffffffffffffffffffffffffffffffffffffff166108fc479081150290604051600060405180830381858888f1935050505015801561030c573d6000803e3d6000fd5b50565b82805461031b9061068c565b90600052602060002090601f01602090048101928261033d5760008555610384565b82601f1061035657805160ff1916838001178555610384565b82800160010185558215610384579182015b82811115610383578251825591602001919060010190610368565b5b5090506103919190610395565b5090565b5b808211156103ae576000816000905550600101610396565b5090565b60006103c56103c084610559565b610534565b9050828152602081018484840111156103dd57600080fd5b6103e884828561064a565b509392505050565b600082601f83011261040157600080fd5b81356104118482602086016103b2565b91505092915050565b60006020828403121561042c57600080fd5b600082013567ffffffffffffffff81111561044657600080fd5b610452848285016103f0565b91505092915050565b6104648161060e565b82525050565b610473816105fc565b82525050565b60006104848261058a565b61048e8185610595565b935061049e818560208601610659565b6104a78161077c565b840191505092915050565b6104bb81610640565b82525050565b60006020820190506104d6600083018461046a565b92915050565b60006020820190506104f1600083018461045b565b92915050565b600060208201905081810360008301526105118184610479565b905092915050565b600060208201905061052e60008301846104b2565b92915050565b600061053e61054f565b905061054a82826106be565b919050565b6000604051905090565b600067ffffffffffffffff8211156105745761057361074d565b5b61057d8261077c565b9050602081019050919050565b600081519050919050565b600082825260208201905092915050565b60006105b182610640565b91506105bc83610640565b9250827fffffffffffffffffffffffffffffffffffffffffffffffffffffffffffffffff038211156105f1576105f06106ef565b5b828201905092915050565b600061060782610620565b9050919050565b600061061982610620565b9050919050565b600073ffffffffffffffffffffffffffffffffffffffff82169050919050565b6000819050919050565b82818337600083830152505050565b60005b8381101561067757808201518184015260208101905061065c565b83811115610686576000848401525b50505050565b600060028204905060018216806106a457607f821691505b602082108114156106b8576106b761071e565b5b50919050565b6106c78261077c565b810181811067ffffffffffffffff821117156106e6576106e561074d565b5b80604052505050565b7f4e487b7100000000000000000000000000000000000000000000000000000000600052601160045260246000fd5b7f4e487b7100000000000000000000000000000000000000000000000000000000600052602260045260246000fd5b7f4e487b7100000000000000000000000000000000000000000000000000000000600052604160045260246000fd5b6000601f19601f830116905091905056fea2646970667358221220cadc64d6251f9f563e2b079c1fd19a32a5768a60b9d79c71743f896091634ef964736f6c63430008040033",
  "immutableReferences": {},
  "source": "// SPDX-License-Identifier: MIT\npragma solidity ^0.8.0;\n\nimport \"./CharityAuctionTimeout.sol\";\n\n// Fun variation, or maybe its just the beer talking\ncontract CharityAuctionTimeoutBidding is CharityAuctionTimeout {\n    uint incrementalTimeout;\n\n    constructor(string memory _initialMessage, address _charityAddress, uint _timeout) CharityAuctionTimeout(_initialMessage, _charityAddress, _timeout) {\n        incrementalTimeout = _timeout;\n    }\n\n    function changeMessage(string memory _newMessage) override public payable {\n        require(msg.value > lastDonation);\n        if(block.timestamp >= timeout) {\n            withdrawalBalanceToCharity();\n        } else {\n            timeout += incrementalTimeout;\n        }\n        lastDonor = msg.sender;\n        lastDonation = msg.value;\n        message = _newMessage;\n    }\n}\n",
  "sourcePath": "/Users/ryan/charity-auction/contracts/CharityAuctionTimeoutBidding.sol",
  "compiler": {
    "name": "solc",
    "version": "0.8.4+commit.c7e474f2.Emscripten.clang"
  },
  "schemaVersion": "3.4.1",
  "updatedAt": "2021-06-08T18:16:18.981Z",
  "devdoc": {
    "kind": "dev",
    "methods": {},
    "version": 1
  },
  "userdoc": {
    "kind": "user",
    "methods": {},
    "version": 1
  }
}