{
  "contractName": "ThresholdRelease",
  "abi": [
    {
      "inputs": [
        {
          "internalType": "string",
          "name": "_title",
          "type": "string"
        },
        {
          "internalType": "string",
          "name": "_description",
          "type": "string"
        },
        {
          "internalType": "string",
          "name": "_initialMessage",
          "type": "string"
        },
        {
          "internalType": "address",
          "name": "_charityAddress",
          "type": "address"
        },
        {
          "internalType": "uint256",
          "name": "_threshold",
          "type": "uint256"
        }
      ],
      "stateMutability": "nonpayable",
      "type": "constructor"
    },
    {
      "inputs": [],
      "name": "campaignCompleted",
      "outputs": [
        {
          "internalType": "bool",
          "name": "",
          "type": "bool"
        }
      ],
      "stateMutability": "view",
      "type": "function",
      "constant": true
    },
    {
      "inputs": [],
      "name": "charityAddress",
      "outputs": [
        {
          "internalType": "address payable",
          "name": "",
          "type": "address"
        }
      ],
      "stateMutability": "view",
      "type": "function",
      "constant": true
    },
    {
      "inputs": [],
      "name": "description",
      "outputs": [
        {
          "internalType": "string",
          "name": "",
          "type": "string"
        }
      ],
      "stateMutability": "view",
      "type": "function",
      "constant": true
    },
    {
      "inputs": [],
      "name": "lastDonation",
      "outputs": [
        {
          "internalType": "uint256",
          "name": "",
          "type": "uint256"
        }
      ],
      "stateMutability": "view",
      "type": "function",
      "constant": true
    },
    {
      "inputs": [],
      "name": "lastDonor",
      "outputs": [
        {
          "internalType": "address",
          "name": "",
          "type": "address"
        }
      ],
      "stateMutability": "view",
      "type": "function",
      "constant": true
    },
    {
      "inputs": [],
      "name": "message",
      "outputs": [
        {
          "internalType": "string",
          "name": "",
          "type": "string"
        }
      ],
      "stateMutability": "view",
      "type": "function",
      "constant": true
    },
    {
      "inputs": [],
      "name": "threshold",
      "outputs": [
        {
          "internalType": "uint256",
          "name": "",
          "type": "uint256"
        }
      ],
      "stateMutability": "view",
      "type": "function",
      "constant": true
    },
    {
      "inputs": [],
      "name": "title",
      "outputs": [
        {
          "internalType": "string",
          "name": "",
          "type": "string"
        }
      ],
      "stateMutability": "view",
      "type": "function",
      "constant": true
    },
    {
      "stateMutability": "payable",
      "type": "receive",
      "payable": true
    },
    {
      "inputs": [],
      "name": "remainingWei",
      "outputs": [
        {
          "internalType": "uint256",
          "name": "",
          "type": "uint256"
        }
      ],
      "stateMutability": "view",
      "type": "function",
      "constant": true
    },
    {
      "inputs": [
        {
          "internalType": "string",
          "name": "_newMessage",
          "type": "string"
        }
      ],
      "name": "changeMessage",
      "outputs": [],
      "stateMutability": "payable",
      "type": "function",
      "payable": true
    }
  ],
  "bytecode": "0x60c060405260006004556000600560006101000a81548160ff0219169083151502179055503480156200003157600080fd5b50604051620010b7380380620010b7833981810160405281019062000057919062000250565b84848484836000908051906020019062000073929190620000f4565b5082600190805190602001906200008c929190620000f4565b508160029080519060200190620000a5929190620000f4565b508073ffffffffffffffffffffffffffffffffffffffff1660808173ffffffffffffffffffffffffffffffffffffffff1660601b81525050505050508060a0818152505050505050506200052b565b828054620001029062000408565b90600052602060002090601f01602090048101928262000126576000855562000172565b82601f106200014157805160ff191683800117855562000172565b8280016001018555821562000172579182015b828111156200017157825182559160200191906001019062000154565b5b50905062000181919062000185565b5090565b5b80821115620001a057600081600090555060010162000186565b5090565b6000620001bb620001b5846200035e565b62000335565b905082815260208101848484011115620001da57620001d9620004d7565b5b620001e7848285620003d2565b509392505050565b6000815190506200020081620004f7565b92915050565b600082601f8301126200021e576200021d620004d2565b5b815162000230848260208601620001a4565b91505092915050565b6000815190506200024a8162000511565b92915050565b600080600080600060a086880312156200026f576200026e620004e1565b5b600086015167ffffffffffffffff81111562000290576200028f620004dc565b5b6200029e8882890162000206565b955050602086015167ffffffffffffffff811115620002c257620002c1620004dc565b5b620002d08882890162000206565b945050604086015167ffffffffffffffff811115620002f457620002f3620004dc565b5b620003028882890162000206565b93505060606200031588828901620001ef565b9250506080620003288882890162000239565b9150509295509295909350565b60006200034162000354565b90506200034f82826200043e565b919050565b6000604051905090565b600067ffffffffffffffff8211156200037c576200037b620004a3565b5b6200038782620004e6565b9050602081019050919050565b6000620003a182620003a8565b9050919050565b600073ffffffffffffffffffffffffffffffffffffffff82169050919050565b6000819050919050565b60005b83811015620003f2578082015181840152602081019050620003d5565b8381111562000402576000848401525b50505050565b600060028204905060018216806200042157607f821691505b6020821081141562000438576200043762000474565b5b50919050565b6200044982620004e6565b810181811067ffffffffffffffff821117156200046b576200046a620004a3565b5b80604052505050565b7f4e487b7100000000000000000000000000000000000000000000000000000000600052602260045260246000fd5b7f4e487b7100000000000000000000000000000000000000000000000000000000600052604160045260246000fd5b600080fd5b600080fd5b600080fd5b600080fd5b6000601f19601f8301169050919050565b620005028162000394565b81146200050e57600080fd5b50565b6200051c81620003c8565b81146200052857600080fd5b50565b60805160601c60a051610b4e62000569600039600081816102550152818161038e01526104810152600081816104d8015261058a0152610b4e6000f3fe6080604052600436106100955760003560e01c80637284e416116100595780637284e4161461016957806391a113031461019457806391b8a49a146101bf578063afcf2fc4146101ea578063e21f37ce146102155761009c565b80630899077e146100a157806342cde4e8146100cc5780634a79d50c146100f757806360fd1c4f14610122578063661a56111461013e5761009c565b3661009c57005b600080fd5b3480156100ad57600080fd5b506100b6610240565b6040516100c39190610813565b60405180910390f35b3480156100d857600080fd5b506100e1610253565b6040516100ee9190610850565b60405180910390f35b34801561010357600080fd5b5061010c610277565b604051610119919061082e565b60405180910390f35b61013c6004803603810190610137919061071f565b610305565b005b34801561014a57600080fd5b506101536103ca565b6040516101609190610850565b60405180910390f35b34801561017557600080fd5b5061017e6103d0565b60405161018b919061082e565b60405180910390f35b3480156101a057600080fd5b506101a961045e565b6040516101b69190610850565b60405180910390f35b3480156101cb57600080fd5b506101d46104b0565b6040516101e191906107dd565b60405180910390f35b3480156101f657600080fd5b506101ff6104d6565b60405161020c91906107f8565b60405180910390f35b34801561022157600080fd5b5061022a6104fa565b604051610237919061082e565b60405180910390f35b600560009054906101000a900460ff1681565b7f000000000000000000000000000000000000000000000000000000000000000081565b6000805461028490610a03565b80601f01602080910402602001604051908101604052809291908181526020018280546102b090610a03565b80156102fd5780601f106102d2576101008083540402835291602001916102fd565b820191906000526020600020905b8154815290600101906020018083116102e057829003601f168201915b505050505081565b600560009054906101000a900460ff161561031f57600080fd5b600454341161032d57600080fd5b806002908051906020019061034392919061060c565b5033600360006101000a81548173ffffffffffffffffffffffffffffffffffffffff021916908373ffffffffffffffffffffffffffffffffffffffff160217905550346004819055507f000000000000000000000000000000000000000000000000000000000000000034476103b991906108dd565b106103c7576103c6610588565b5b50565b60045481565b600180546103dd90610a03565b80601f016020809104026020016040519081016040528092919081815260200182805461040990610a03565b80156104565780601f1061042b57610100808354040283529160200191610456565b820191906000526020600020905b81548152906001019060200180831161043957829003601f168201915b505050505081565b6000600560009054906101000a900460ff161561047e57600090506104ad565b477f00000000000000000000000000000000000000000000000000000000000000006104aa9190610933565b90505b90565b600360009054906101000a900473ffffffffffffffffffffffffffffffffffffffff1681565b7f000000000000000000000000000000000000000000000000000000000000000081565b6002805461050790610a03565b80601f016020809104026020016040519081016040528092919081815260200182805461053390610a03565b80156105805780601f1061055557610100808354040283529160200191610580565b820191906000526020600020905b81548152906001019060200180831161056357829003601f168201915b505050505081565b7f000000000000000000000000000000000000000000000000000000000000000073ffffffffffffffffffffffffffffffffffffffff166108fc479081150290604051600060405180830381858888f193505050501580156105ee573d6000803e3d6000fd5b506001600560006101000a81548160ff021916908315150217905550565b82805461061890610a03565b90600052602060002090601f01602090048101928261063a5760008555610681565b82601f1061065357805160ff1916838001178555610681565b82800160010185558215610681579182015b82811115610680578251825591602001919060010190610665565b5b50905061068e9190610692565b5090565b5b808211156106ab576000816000905550600101610693565b5090565b60006106c26106bd84610890565b61086b565b9050828152602081018484840111156106de576106dd610af8565b5b6106e98482856109c1565b509392505050565b600082601f83011261070657610705610af3565b5b81356107168482602086016106af565b91505092915050565b60006020828403121561073557610734610b02565b5b600082013567ffffffffffffffff81111561075357610752610afd565b5b61075f848285016106f1565b91505092915050565b61077181610979565b82525050565b61078081610967565b82525050565b61078f8161098b565b82525050565b60006107a0826108c1565b6107aa81856108cc565b93506107ba8185602086016109d0565b6107c381610b07565b840191505092915050565b6107d7816109b7565b82525050565b60006020820190506107f26000830184610777565b92915050565b600060208201905061080d6000830184610768565b92915050565b60006020820190506108286000830184610786565b92915050565b600060208201905081810360008301526108488184610795565b905092915050565b600060208201905061086560008301846107ce565b92915050565b6000610875610886565b90506108818282610a35565b919050565b6000604051905090565b600067ffffffffffffffff8211156108ab576108aa610ac4565b5b6108b482610b07565b9050602081019050919050565b600081519050919050565b600082825260208201905092915050565b60006108e8826109b7565b91506108f3836109b7565b9250827fffffffffffffffffffffffffffffffffffffffffffffffffffffffffffffffff0382111561092857610927610a66565b5b828201905092915050565b600061093e826109b7565b9150610949836109b7565b92508282101561095c5761095b610a66565b5b828203905092915050565b600061097282610997565b9050919050565b600061098482610997565b9050919050565b60008115159050919050565b600073ffffffffffffffffffffffffffffffffffffffff82169050919050565b6000819050919050565b82818337600083830152505050565b60005b838110156109ee5780820151818401526020810190506109d3565b838111156109fd576000848401525b50505050565b60006002820490506001821680610a1b57607f821691505b60208210811415610a2f57610a2e610a95565b5b50919050565b610a3e82610b07565b810181811067ffffffffffffffff82111715610a5d57610a5c610ac4565b5b80604052505050565b7f4e487b7100000000000000000000000000000000000000000000000000000000600052601160045260246000fd5b7f4e487b7100000000000000000000000000000000000000000000000000000000600052602260045260246000fd5b7f4e487b7100000000000000000000000000000000000000000000000000000000600052604160045260246000fd5b600080fd5b600080fd5b600080fd5b600080fd5b6000601f19601f830116905091905056fea264697066735822122053e673bdb6fca5054a0a8927acd4b1d6f4e1e03f2652f17b1614a918b9fa76ae64736f6c63430008050033",
  "immutableReferences": {
    "7": [
      {
        "length": 32,
        "start": 1240
      },
      {
        "length": 32,
        "start": 1418
      }
    ],
    "89": [
      {
        "length": 32,
        "start": 597
      },
      {
        "length": 32,
        "start": 910
      },
      {
        "length": 32,
        "start": 1153
      }
    ]
  },
  "source": "// SPDX-License-Identifier: MIT\npragma solidity ^0.8.0;\n\nimport \"./CampaignWithAuction.sol\";\n\ncontract ThresholdRelease is CampaignWithAuction {\n    uint immutable public threshold;\n\n    constructor(string memory _title, string memory _description, string memory _initialMessage, address _charityAddress, uint _threshold)\n        CampaignWithAuction( _title, _description, _initialMessage, _charityAddress )\n    {\n        threshold = _threshold;\n    }\n\n    function remainingWei() public view returns (uint) {\n        if(campaignCompleted) {\n            return 0;\n        } else {\n            return threshold - address(this).balance;\n        }\n    }\n\n    function changeMessage(string memory _newMessage) override public payable requiresActiveCampaign {\n        require(msg.value > lastDonation);\n        message = _newMessage;\n        lastDonor = msg.sender;\n        lastDonation = msg.value;\n        if(address(this).balance + msg.value >= threshold) {\n            withdrawalBalanceToCharity();\n        }\n    }\n\n    function withdrawalBalanceToCharity() internal override {\n        charityAddress.transfer(address(this).balance);\n        campaignCompleted = true;\n    }\n}\n",
  "sourcePath": "/Users/ryan/charity-auction/contracts/ThresholdRelease.sol",
  "compiler": {
    "name": "solc",
    "version": "0.8.5+commit.a4f2e591.Emscripten.clang"
  },
  "schemaVersion": "3.4.1",
  "updatedAt": "2021-06-16T04:54:01.309Z",
  "networkType": "ethereum",
  "devdoc": {
    "kind": "dev",
    "methods": {},
    "version": 1
  },
  "userdoc": {
    "kind": "user",
    "methods": {},
    "version": 1
  }
}