{
  "contractName": "TimeoutRelease",
  "abi": [
    {
      "inputs": [
        {
          "internalType": "string",
          "name": "_title",
          "type": "string"
        },
        {
          "internalType": "string",
          "name": "_description",
          "type": "string"
        },
        {
          "internalType": "string",
          "name": "_initialMessage",
          "type": "string"
        },
        {
          "internalType": "address",
          "name": "_charityAddress",
          "type": "address"
        },
        {
          "internalType": "uint256",
          "name": "_timeInDays",
          "type": "uint256"
        }
      ],
      "stateMutability": "nonpayable",
      "type": "constructor"
    },
    {
      "inputs": [],
      "name": "campaignCompleted",
      "outputs": [
        {
          "internalType": "bool",
          "name": "",
          "type": "bool"
        }
      ],
      "stateMutability": "view",
      "type": "function"
    },
    {
      "inputs": [],
      "name": "charityAddress",
      "outputs": [
        {
          "internalType": "address payable",
          "name": "",
          "type": "address"
        }
      ],
      "stateMutability": "view",
      "type": "function"
    },
    {
      "inputs": [],
      "name": "description",
      "outputs": [
        {
          "internalType": "string",
          "name": "",
          "type": "string"
        }
      ],
      "stateMutability": "view",
      "type": "function"
    },
    {
      "inputs": [],
      "name": "lastDonation",
      "outputs": [
        {
          "internalType": "uint256",
          "name": "",
          "type": "uint256"
        }
      ],
      "stateMutability": "view",
      "type": "function"
    },
    {
      "inputs": [],
      "name": "lastDonor",
      "outputs": [
        {
          "internalType": "address",
          "name": "",
          "type": "address"
        }
      ],
      "stateMutability": "view",
      "type": "function"
    },
    {
      "inputs": [],
      "name": "message",
      "outputs": [
        {
          "internalType": "string",
          "name": "",
          "type": "string"
        }
      ],
      "stateMutability": "view",
      "type": "function"
    },
    {
      "inputs": [],
      "name": "timeout",
      "outputs": [
        {
          "internalType": "uint256",
          "name": "",
          "type": "uint256"
        }
      ],
      "stateMutability": "view",
      "type": "function"
    },
    {
      "inputs": [],
      "name": "title",
      "outputs": [
        {
          "internalType": "string",
          "name": "",
          "type": "string"
        }
      ],
      "stateMutability": "view",
      "type": "function"
    },
    {
      "stateMutability": "payable",
      "type": "receive"
    },
    {
      "inputs": [
        {
          "internalType": "string",
          "name": "_newMessage",
          "type": "string"
        }
      ],
      "name": "changeMessage",
      "outputs": [],
      "stateMutability": "payable",
      "type": "function"
    }
  ],
  "bytecode": "0x60a060405260006004556000600560006101000a81548160ff0219169083151502179055503480156200003157600080fd5b50604051620010203803806200102083398181016040528101906200005791906200026c565b8484848483600090805190602001906200007392919062000110565b5082600190805190602001906200008c92919062000110565b508160029080519060200190620000a592919062000110565b508073ffffffffffffffffffffffffffffffffffffffff1660808173ffffffffffffffffffffffffffffffffffffffff1660601b81525050505050506201518081620000f291906200040d565b42620000ff9190620003b0565b600681905550505050505062000634565b8280546200011e90620004e2565b90600052602060002090601f0160209004810192826200014257600085556200018e565b82601f106200015d57805160ff19168380011785556200018e565b828001600101855582156200018e579182015b828111156200018d57825182559160200191906001019062000170565b5b5090506200019d9190620001a1565b5090565b5b80821115620001bc576000816000905550600101620001a2565b5090565b6000620001d7620001d1846200037a565b62000351565b905082815260208101848484011115620001f657620001f5620005e0565b5b62000203848285620004ac565b509392505050565b6000815190506200021c8162000600565b92915050565b600082601f8301126200023a5762000239620005db565b5b81516200024c848260208601620001c0565b91505092915050565b60008151905062000266816200061a565b92915050565b600080600080600060a086880312156200028b576200028a620005ea565b5b600086015167ffffffffffffffff811115620002ac57620002ab620005e5565b5b620002ba8882890162000222565b955050602086015167ffffffffffffffff811115620002de57620002dd620005e5565b5b620002ec8882890162000222565b945050604086015167ffffffffffffffff81111562000310576200030f620005e5565b5b6200031e8882890162000222565b935050606062000331888289016200020b565b9250506080620003448882890162000255565b9150509295509295909350565b60006200035d62000370565b90506200036b828262000518565b919050565b6000604051905090565b600067ffffffffffffffff821115620003985762000397620005ac565b5b620003a382620005ef565b9050602081019050919050565b6000620003bd82620004a2565b9150620003ca83620004a2565b9250827fffffffffffffffffffffffffffffffffffffffffffffffffffffffffffffffff038211156200040257620004016200054e565b5b828201905092915050565b60006200041a82620004a2565b91506200042783620004a2565b9250817fffffffffffffffffffffffffffffffffffffffffffffffffffffffffffffffff04831182151516156200046357620004626200054e565b5b828202905092915050565b60006200047b8262000482565b9050919050565b600073ffffffffffffffffffffffffffffffffffffffff82169050919050565b6000819050919050565b60005b83811015620004cc578082015181840152602081019050620004af565b83811115620004dc576000848401525b50505050565b60006002820490506001821680620004fb57607f821691505b602082108114156200051257620005116200057d565b5b50919050565b6200052382620005ef565b810181811067ffffffffffffffff82111715620005455762000544620005ac565b5b80604052505050565b7f4e487b7100000000000000000000000000000000000000000000000000000000600052601160045260246000fd5b7f4e487b7100000000000000000000000000000000000000000000000000000000600052602260045260246000fd5b7f4e487b7100000000000000000000000000000000000000000000000000000000600052604160045260246000fd5b600080fd5b600080fd5b600080fd5b600080fd5b6000601f19601f8301169050919050565b6200060b816200046e565b81146200061757600080fd5b50565b6200062581620004a2565b81146200063157600080fd5b50565b60805160601c6109c66200065a6000396000818161040901526104bb01526109c66000f3fe60806040526004361061008a5760003560e01c806370dea79a1161005957806370dea79a146101335780637284e4161461015e57806391b8a49a14610189578063afcf2fc4146101b4578063e21f37ce146101df57610091565b80630899077e146100965780634a79d50c146100c157806360fd1c4f146100ec578063661a56111461010857610091565b3661009157005b600080fd5b3480156100a257600080fd5b506100ab61020a565b6040516100b89190610744565b60405180910390f35b3480156100cd57600080fd5b506100d661021d565b6040516100e3919061075f565b60405180910390f35b61010660048036038101906101019190610650565b6102ab565b005b34801561011457600080fd5b5061011d610347565b60405161012a9190610781565b60405180910390f35b34801561013f57600080fd5b5061014861034d565b6040516101559190610781565b60405180910390f35b34801561016a57600080fd5b50610173610353565b604051610180919061075f565b60405180910390f35b34801561019557600080fd5b5061019e6103e1565b6040516101ab919061070e565b60405180910390f35b3480156101c057600080fd5b506101c9610407565b6040516101d69190610729565b60405180910390f35b3480156101eb57600080fd5b506101f461042b565b604051610201919061075f565b60405180910390f35b600560009054906101000a900460ff1681565b6000805461022a906108aa565b80601f0160208091040260200160405190810160405280929190818152602001828054610256906108aa565b80156102a35780601f10610278576101008083540402835291602001916102a3565b820191906000526020600020905b81548152906001019060200180831161028657829003601f168201915b505050505081565b600560009054906101000a900460ff16156102c557600080fd5b60045434116102d357600080fd5b60065442106102e5576102e46104b9565b5b33600360006101000a81548173ffffffffffffffffffffffffffffffffffffffff021916908373ffffffffffffffffffffffffffffffffffffffff16021790555034600481905550806002908051906020019061034392919061053d565b5050565b60045481565b60065481565b60018054610360906108aa565b80601f016020809104026020016040519081016040528092919081815260200182805461038c906108aa565b80156103d95780601f106103ae576101008083540402835291602001916103d9565b820191906000526020600020905b8154815290600101906020018083116103bc57829003601f168201915b505050505081565b600360009054906101000a900473ffffffffffffffffffffffffffffffffffffffff1681565b7f000000000000000000000000000000000000000000000000000000000000000081565b60028054610438906108aa565b80601f0160208091040260200160405190810160405280929190818152602001828054610464906108aa565b80156104b15780601f10610486576101008083540402835291602001916104b1565b820191906000526020600020905b81548152906001019060200180831161049457829003601f168201915b505050505081565b7f000000000000000000000000000000000000000000000000000000000000000073ffffffffffffffffffffffffffffffffffffffff166108fc479081150290604051600060405180830381858888f1935050505015801561051f573d6000803e3d6000fd5b506001600560006101000a81548160ff021916908315150217905550565b828054610549906108aa565b90600052602060002090601f01602090048101928261056b57600085556105b2565b82601f1061058457805160ff19168380011785556105b2565b828001600101855582156105b2579182015b828111156105b1578251825591602001919060010190610596565b5b5090506105bf91906105c3565b5090565b5b808211156105dc5760008160009055506001016105c4565b5090565b60006105f36105ee846107c1565b61079c565b90508281526020810184848401111561060f5761060e610970565b5b61061a848285610868565b509392505050565b600082601f8301126106375761063661096b565b5b81356106478482602086016105e0565b91505092915050565b6000602082840312156106665761066561097a565b5b600082013567ffffffffffffffff81111561068457610683610975565b5b61069084828501610622565b91505092915050565b6106a281610820565b82525050565b6106b18161080e565b82525050565b6106c081610832565b82525050565b60006106d1826107f2565b6106db81856107fd565b93506106eb818560208601610877565b6106f48161097f565b840191505092915050565b6107088161085e565b82525050565b600060208201905061072360008301846106a8565b92915050565b600060208201905061073e6000830184610699565b92915050565b600060208201905061075960008301846106b7565b92915050565b6000602082019050818103600083015261077981846106c6565b905092915050565b600060208201905061079660008301846106ff565b92915050565b60006107a66107b7565b90506107b282826108dc565b919050565b6000604051905090565b600067ffffffffffffffff8211156107dc576107db61093c565b5b6107e58261097f565b9050602081019050919050565b600081519050919050565b600082825260208201905092915050565b60006108198261083e565b9050919050565b600061082b8261083e565b9050919050565b60008115159050919050565b600073ffffffffffffffffffffffffffffffffffffffff82169050919050565b6000819050919050565b82818337600083830152505050565b60005b8381101561089557808201518184015260208101905061087a565b838111156108a4576000848401525b50505050565b600060028204905060018216806108c257607f821691505b602082108114156108d6576108d561090d565b5b50919050565b6108e58261097f565b810181811067ffffffffffffffff821117156109045761090361093c565b5b80604052505050565b7f4e487b7100000000000000000000000000000000000000000000000000000000600052602260045260246000fd5b7f4e487b7100000000000000000000000000000000000000000000000000000000600052604160045260246000fd5b600080fd5b600080fd5b600080fd5b600080fd5b6000601f19601f830116905091905056fea2646970667358221220c4d265ba1e7584a77638beeb275d58d30253fad8590c0a407d591ff4e7e3c75764736f6c63430008050033",
  "immutableReferences": {
    "86": [
      {
        "length": 32,
        "start": 1033
      },
      {
        "length": 32,
        "start": 1211
      }
    ]
  },
  "source": "// SPDX-License-Identifier: MIT\npragma solidity ^0.8.0;\n\nimport \"./TimeoutRelease.sol\";\nimport \"./CampaignWithAuction.sol\";\n\ncontract TimeoutRelease is CampaignWithAuction {\n    uint public timeout;\n\n    constructor(string memory _title, string memory _description, string memory _initialMessage, address _charityAddress, uint _timeInDays)\n        CampaignWithAuction( _title, _description, _initialMessage, _charityAddress)\n    {\n        timeout = block.timestamp + (_timeInDays * 1 days);\n    }\n\n    function changeMessage(string memory _newMessage) override virtual public payable requiresActiveCampaign {\n        require(msg.value > lastDonation);\n        if(block.timestamp >= timeout) {\n            withdrawalBalanceToCharity();\n        }\n        lastDonor = msg.sender;\n        lastDonation = msg.value;\n        message = _newMessage;\n    }\n\n    function withdrawalBalanceToCharity() internal override {\n        charityAddress.transfer(address(this).balance);\n        campaignCompleted = true;\n    }\n}\n\n",
  "sourcePath": "/Users/ryan/charity-auction/contracts/TimeoutRelease.sol",
  "compiler": {
    "name": "solc",
    "version": "0.8.5+commit.a4f2e591.Emscripten.clang"
  },
  "schemaVersion": "3.4.1",
  "updatedAt": "2021-06-13T11:33:07.080Z",
  "devdoc": {
    "kind": "dev",
    "methods": {},
    "version": 1
  },
  "userdoc": {
    "kind": "user",
    "methods": {},
    "version": 1
  }
}